:020000040800F2
:10000000000002208D390008B12D0008B32D000832
:10001000B52D0008B72D0008B92D0008000000001C
:10002000000000000000000000000000BB2D0008E0
:10003000BD2D000800000000BF2D0008C12D0008E4
:10004000DD390008DD390008DD390008DD39000838
:10005000DD390008DD390008DD390008DD39000828
:10006000DD390008DD390008CD2D0008DD39000834
:10007000DD390008DD390008DD390008DD39000808
:10008000DD390008DD390008DD390008DD390008F8
:10009000DD390008DD390008DD390008DD390008E8
:1000A000DD390008DD390008DD390008DD390008D8
:1000B000DD390008DD390008DD390008D92D0008D8
:1000C000DD390008DD390008DD390008DD390008B8
:1000D000DD390008DD390008E92D0008F92D000898
:1000E000092E0008DD390008DD390008DD39000877
:1000F000152E00082D2E0008DD390008DD39000816
:10010000DD390008DD390008DD390008DD39000877
:10011000DD390008DD390008452E0008552E00089D
:10012000DD390008DD390008DD390008DD39000857
:10013000DD390008DD390008DD390008DD39000847
:10014000DD390008DD390008DD390008DD39000837
:10015000DD390008DD390008DD390008DD39000827
:10016000DD390008DD390008DD390008DD39000817
:10017000DD390008DD390008DD390008DD39000807
:08018000DD390008DD3900083B
:1001880010B5054C237833B9044B13B10448AFF3C9
:1001980000800123237010BD0C0000200000000027
:1001A800283A000808B5034B1BB103490348AFF3CD
:1001B800008008BD0000000010000020283A000858
:1001C80053B94AB9002908BF00281CBF4FF0FF31B6
:1001D8004FF0FF3000F072B9ADF1080C6DE904CEB4
:1001E80000F006F8DDF804E0DDE9022304B070470A
:1001F8002DE9F047089E04468846002B4BD18A42D9
:10020800154667D9B2FA82F24AB1C2F1200701FA5B
:1002180002F320FA07F7954047EA030894404FEAAB
:10022800154E230CB8FBFEF71FFA85FC0EFB17884A
:1002380043EA084307FB0CF1994209D9EB1807F187
:10024800FF3080F01B81994240F21881023F2B4415
:100258005B1AA4B2B3FBFEF00EFB103344EA03446E
:1002680000FB0CFCA44509D92C1900F1FF3380F0E0
:100278000781A44540F2048102382C4440EA074033
:10028800A4EB0C0400271EB1D4400023C6E90043A8
:100298003946BDE8F0878B4209D9002E00F0EB8083
:1002A8000027C6E9000138463946BDE8F087B3FAA9
:1002B80083F7002F47D18B4202D3824200F2FA80A3
:1002C800841A61EB030301209846002EE0D0C6E9AA
:1002D8000048DDE702B9FFDEB2FA82F2002A40F0F8
:1002E8008F80491B4FEA154E1FFA85F80127B1FB8D
:1002F800FEFC230C0EFB1C1143EA014308FB0CF126
:10030800994207D9EB180CF1FF3002D2994200F25A
:10031800CD808446591AA3B2B1FBFEF00EFB10142F
:1003280043EA044408FB00F8A04507D92C1900F15A
:10033800FF3302D2A04500F2B6801846A4EB0804A9
:1003480040EA0C409FE7C7F1200CBB4022FA0CFEA4
:100358004EEA030E01FA07F420FA0CF521FA0CF321
:100368004FEA1E482543B3FBF8F92C0C08FB193358
:100378001FFA8EFA44EA034309FB0AF49C4202FA84
:1003880007F200FA07F10BD91EEB030309F1FF305E
:1003980080F087809C4240F28480A9F1020973446E
:1003A8001B1BADB2B3FBF8F008FB103345EA03445E
:1003B80000FB0AFAA24508D91EEB040400F1FF333A
:1003C8006BD2A24569D90238744440EA0940A0FBBF
:1003D8000289A4EB0A044C45C2464B4654D351D07B
:1003E800002E69D0B1EB0A0564EB030404FA0CFC97
:1003F800FD40FC404CEA0505C6E90054002747E7E4
:10040800C2F1200320FA03F7954001FA02F021FA1D
:1004180003F34FEA154E3843010CB3FBFEF71FFAFE
:1004280085F80EFB173341EA034107FB08F38B42BB
:1004380004FA02F407D9691807F1FF3C2FD28B425E
:100448002DD9023F2944CB1A81B2B3FBFEF00EFB33
:10045800103341EA034100FB08F38B4207D96918BE
:1004680000F1FF3C17D28B4215D902382944C91A2A
:1004780040EA07473BE73746304609E70746E7E6DD
:100488001846FBE64145ABD2B8EB020A69EB0E020F
:1004980001381346A4E76046E9E7184695E767463A
:1004A800D1E781467CE702382C4447E7ACF1020CDF
:1004B8002B442FE7384608E73746E9E6704700BF80
:1004C80010B504460E4B18784FF47A73B3FBF0F36B
:1004D8000C4A1068B0FBF3F000F094F868B90F2CE0
:1004E80001D901200AE0002221464FF0FF3000F038
:1004F80049F8034B5C60002000E0012010BD00BFFC
:10050800000000200800002008B50B4B1A6842F4D0
:1005180000721A601A6842F480621A601A6842F41B
:1005280080721A60032000F01BF80020FFF7C8FF54
:1005380002F0F0FB002008BD003C0240034A1168AD
:10054800034B1B780B441360704700BF2800002042
:1005580000000020014B1868704700BF28000020E9
:10056800074AD36823F4E0631B041B0C000200F461
:10057800E060184340F0BF6040F40030D06070473E
:1005880000ED00E030B4174BDB68C3F30223C3F17E
:100598000704042C28BF04241D1D062D18D9033B6D
:1005A8004FF0FF3505FA04F421EA0401994005FAF1
:1005B80003F322EA0303194300280BDB0901C9B23C
:1005C80000F1604000F5614080F8001330BC7047CE
:1005D8000023E5E700F00F000901C9B2024B1954E6
:1005E800F4E700BF00ED00E014ED00E000F01F02AA
:1005F800400901239340024A42F82030704700BF67
:1006080000E100E00138B0F1807F0AD2064B586063
:10061800064AF02182F823100020986007221A6009
:1006280070470120704700BF10E000E000ED00E0D7
:10063800042805D0054A136823F0040313607047A3
:10064800024A136843F004031360704710E000E0A7
:10065800704708B5FFF7FCFF08BD90F83530DBB2EE
:10066800022B03D08023436501207047052380F8BF
:1006780035300268136823F00103136000207047C7
:1006880000230F2B00F2D780F0B482B039E00722A4
:1006980000E00022B2403A430234674E46F8242074
:1006A800664A1468EA4302EA04064F6817F4803F72
:1006B80001D045EA0406614C2660646802EA040633
:1006C8004F6817F4003F01D045EA04065B4C6660AA
:1006D800A46802EA04064F6817F4801F01D045EAAF
:1006E8000406564CA660E46822404E6816F4001FC3
:1006F80001D045EA0402514CE26001330F2B00F2AD
:10070800978001229A400C6804EA0205AA42F4D1B3
:100718004C68022C01D0122C10D1DE08083650F893
:1007280026C003F00704A7000F24BC402CEA040CE1
:100738000C69BC4044EA0C0440F8264004685F0099
:100748000326BE40F64306EA040C4C6804F0030492
:10075800BC4044EA0C0404604C6804F1FF3CBCF162
:10076800010F03D9112C01D0122C10D1846806EA8C
:10077800040CCC68BC4044EA0C048460446824EA55
:1007880002024C68C4F300149C4014434460C268DD
:1007980016408A68BA403243C2604A6812F0805FE5
:1007A800ABD000220192264A546C44F4804454642D
:1007B800526C02F480420192019A9C08A61C1E4ABF
:1007C80052F8267003F0030296000F22B24027EA7F
:1007D80002071C4A90423FF45CAF02F580629042E7
:1007E8001AD002F58062904218D002F580629042D9
:1007F80016D002F58062904214D002F580629042D1
:1008080012D002F58062904210D002F580629042C8
:100818003FF43DAF08223DE701223BE7022239E7DA
:10082800032237E7042235E7052233E7062231E7BA
:1008380002B0F0BC7047704700380140003C0140EE
:10084800003802400000024012B909048161704773
:10085800816170477047000008B5054B5B6903422A
:1008680000D108BD024B5861FFF7F4FFF9E700BF5C
:10087800003C014090F83E30DBB2402B13D00369B6
:10088800B3F5804F1ED0036D002B2DD0036D012BC7
:1008980033D1436CC3F3C813026803F0060343F073
:1008A800F103136129E0036D2BB9436C026803F06F
:1008B800FE03136121E0436C026843F00103DBB2DD
:1008C80013611AE090F83D30DBB2212B06D0436C5F
:1008D800026843F00103DBB213610EE0436C026867
:1008E80003F0FE03136108E0436CC3F3C813026806
:1008F80003F0060343F0F003136100207047436CD4
:100908000268DBB213610020704710B48BB090F816
:100918003E30DAB2C16A046B90F83D30DBB2222B6C
:100928000CD00023099303685A6909929B690993BB
:10093800099B00200BB05DF8044B7047036D0BB9A1
:10094800402A17D0036D1BB90369B3F5404F19D07E
:10095800438D9BB2002B25D1029303685A690292FA
:100968009A690292029A1A6842F400721A60002385
:100978000365DEE7009303685A6900929B69009358
:10098800009BD6E70023019303685A6901929A698C
:100998000192019A1A6842F480721A60036D013359
:1009A8000365C6E7438D9BB2012B1AD0438D9BB2DA
:1009B800022B6BD00268136843F4806313600368EA
:1009C8005A6812F4006F03D05A6842F480525A6091
:1009D8000023089303685A6908929B690893089B47
:1009E800C5E711F5803F16D004293DD008293BD032
:1009F800122C39D0C36A022B30D00268136823F452
:100A0800806313600023059303685A6905929B6904
:100A18000593059BABE70268136823F480631360B2
:100A280003685A6812F4006F0CD01A6822F48062C6
:100A38001A600023039303685A6903929B6903931E
:100A4800039B94E7002204925A6904929A690492DB
:100A5800049A1A6842F400721A6088E702681368F8
:100A680043F480631360CDE70268136823F480635E
:100A780013600023069303685A6906929A690692DE
:100A8800069A1A6842F400721A6070E7C36A022B69
:100A98001BD00268136823F480631360026813682C
:100AA80043F40063136003685A6812F4006F03D0BC
:100AB8005A6842F480525A600023079303685A69BF
:100AC80007929B690793079B51E70268136843F4F1
:100AD80080631360E7E7438D9BB24BB1436A5A1CAE
:100AE800426202681B781361438D013B9BB24385C8
:100AF80000207047438D9BB24BB103681A69436A63
:100B0800591C41621A70438D013B9BB243850020FA
:100B180070470000002800F0828010B5044690F865
:100B28003D30002B41D0242384F83D3022681368DF
:100B380023F00103136000F07FFF3A4BA3FB00236F
:100B48009B0C226853606168374A914232D801335E
:100B5800226813626368344A934235D85B00B0FB5D
:100B6800F3F0C0F30B03032B00D804202368D861EB
:100B7800E369216A22680B4313602369E1682268EC
:100B88000B4393606369A16922680B43D3602268B1
:100B9800136843F00103136000202064202384F8C5
:100BA8003D30206384F83E0010BD80F83C3001F0F1
:100BB80097FFB8E74FF4967202FB03F31B4AA2FBB8
:100BC80003239B090133C3E7A16889B903EB4302F7
:100BD800B0FBF2F2C2F30B02B2FA82F25209E2B9A6
:100BE80091B903EB4303B0FBF3F040F40040BDE7D9
:100BF80003EB830202EB8202B0FBF2F2C2F30B02B8
:100C0800B2FA82F25209EAE703EB830303EB8303A8
:100C1800B0FBF3F040F44040A8E70120A6E701202C
:100C2800704700BF83DE1B43A0860100D34D6210CE
:100C380070477047704708B590F83D30DAB2438D79
:100C48009BB273B1436A591C416201681B780B61FE
:100C5800438D013B9BB24385438D9BB20BB9292A37
:100C680001D0002008BD0268536823F480635360F4
:100C780021230363282380F83D30FFF7DBFFF0E7EB
:100C8800704790F83D30DAB2438D9BB2F3B110B59E
:100C980003681969436A5C1C44621970438D013BFF
:100CA8009BB24385438D9BB20BB92A2A01D0002001
:100CB80010BD0268536823F48063536022230363E2
:100CC800282380F83D30FFF7DBFFF0E7002070476E
:100CD800704708B503689A6912F0040F09D000211B
:100CE8009B6913F0800F06D0028BFFF7F1FF0020FD
:100CF80008BD0121F4E78289F7E77047704710B50E
:100D080090F83D30DBB290F83E20D2B2C46A018D33
:100D180009B9212B05D0212B3CD0402A38D00020FE
:100D280010BD042C04D0082C02D014F5803F19D132
:100D38000268536823F4E06353600268136843F45D
:100D48000073136000230363202380F83D3090F87C
:100D58003E30DBB2402B15D0002380F83E30FFF741
:100D680067FFDCE70268536823F4E06353601123EC
:100D78000363002380F83E30202380F83D30FFF7DE
:100D880057FFCCE7002380F83E30FFF7B7FFC6E7F0
:100D9800222BC4D1438D9BB27BB190F83E30DBB29D
:100DA800402B10D0436A5A1C426202681B781361B8
:100DB800438D013B9BB24385B1E70268536823F436
:100DC80080635360ABE7036D9BB9C36C012B08D0FC
:100DD800836CC3F3072302681361036D0133036552
:100DE8009DE7836C0268DBB21361036D0233036510
:100DF80095E7036D012B17D0036D022B8FD190F867
:100E08003D30DBB2222B17D090F83D30DBB2212BDE
:100E180085D1436A5A1C426202681B781361438D6C
:100E2800013B9BB243857AE7836C0268DBB21361AE
:100E3800036D0133036572E70268136843F4807336
:100E480013606CE708B5C26A90F83D30DBB2212B1D
:100E580001D0002008BD438D9BB203BB042A04D0F7
:100E6800082A02D012F5803F24D10268536823F47F
:100E7800E06353600268136843F40073136000234F
:100E88000363202380F83D3090F83E30DBB2402BDE
:100E980020D0002380F83E30FFF7CAFED9E7436A26
:100EA8005A1C426202681B781361438D013B9BB256
:100EB8004385CEE70268536823F4E0635360112347
:100EC8000363002380F83E30202380F83D30FFF78D
:100ED800AFFEBEE7002380F83E30FFF70FFFB8E70C
:100EE800704708B590F83D30DBB2222B01D00020C6
:100EF80008BD438D9BB2032B13D903681A69436A53
:100F0800591C41621A70438D013B9BB24385438D46
:100F18009BB2032BEBD10268536823F480635360C0
:100F2800E5E7012BE3D80268136823F480631360B4
:100F38000268536823F4E063536003681A69436ADC
:100F4800591C41621A70438D013B9BB24385202393
:100F580080F83D300023036390F83E30DBB2402B2D
:100F680005D0002380F83E30FFF763FEBFE700237B
:100F780080F83E30FFF7B4FFB9E708B5C26A438D81
:100F88009BB2042B13D0438D9BB2032B1FD0438DF0
:100F98009BB2022B30D003681A69436A591C41621C
:100FA8001A70438D013B9BB24385002008BD02683F
:100FB800536823F48063536003681A69436A591CB1
:100FC80041621A70438D013B9BB24385EDE702688D
:100FD800536823F4806353600268136823F48063C2
:100FE800136003681A69436A591C41621A70438D79
:100FF800013B9BB24385D8E7013A012A2DD9026803
:10100800136843F40073136003681A69436A591C30
:1010180041621A70438D013B9BB2438503681A698C
:10102800436A591C41621A70438D013B9BB2438548
:101038000268536823F440735360202380F83D30DE
:101048000023036390F83E30DBB2402B10D000231E
:1010580080F83E30FFF7EDFDA7E70268136823F438
:10106800806313600268136843F480731360CBE7EE
:10107800002380F83E30FFF733FF96E7704770474C
:1010880010B5044690F83D30293B012B37D990F82C
:101098003D30DBB2602B07D003685B6813F4006F48
:1010A80002D1202380F83D300023236384F83E30AA
:1010B8002268136823F40063136023685A6812F4E3
:1010C800006F3FD05A6822F400625A60626B92F84F
:1010D8003530DBB2012B18D03A4B1365606BFFF744
:1010E800BCFA00283FD02268136823F0010313607C
:1010F800202384F83D30606B036D984733E000236C
:101108000363282380F83D30D2E7A36B2D4A1A6584
:10111800A06BFFF7A2FA30B323685A6912F0400FA8
:1011280004D01A69636A591C61621A7022681368CC
:1011380023F001031360202384F83D30A06B036D76
:10114800984710E094F83D20D2B2602A11D05A692D
:1011580012F0400F04D01A69636A591C61621A7050
:101168002046FFF78BFF94F83D30DBB2282B17D0D1
:1011780010BD202284F83D20002222645A6912F012
:10118800400F04D01A69636A591C61621A70226898
:10119800136823F0010313602046FFF770FFE2E7AE
:1011A800236C13F0040FE3D0074BE362002323639F
:1011B800202284F83D2084F83E302046FFF79DFD2C
:1011C800D6E700BF3D1400080000FFFF10B582B04D
:1011D80090F83D30DBB201684A6822F4E0624A6068
:1011E80000220192026851690191116841F00101E0
:1011F8001160019A01680A6822F480620A60016835
:101208004A6812F4006F14D090F83D20D2B2222A16
:101218000AD090F83D20D2B22A2A05D0426B126833
:10122800526892B2428504E0826B1268526892B2A8
:101238004285428D92B2F2B14A6912F0040F08D089
:101248000969426A541C44621170428D013A92B293
:1012580042850268516911F0400F08D01169426A4D
:10126800541C44621170428D013A92B24285026C5C
:1012780042F004020264026CA2B9282B15D02A2B72
:1012880013D0292B11D0026B222A01D0222B17D17F
:1012980000230363202280F83D2080F83E30FFF7CA
:1012A800EFFC0DE0FFF7ECFE0AE0074BC3620023FA
:1012B8000363202280F83D2080F83E30FFF71DFDB3
:1012C800002002B010BD00BF0000FFFFF8B50546C2
:1012D80003689F695C695E6890F83E30DBB2102B4A
:1012E80025D0402B23D04C4B234013B116F4007F5C
:1012F8006ED14A4B234013B116F4007F6BD1484B93
:101308003B40002B6FD0474B234033B116F4806F1E
:1013180003D0454B2340002B61D0434B234053B3AC
:1013280016F4007F27D02846FFF7D5FB23E014F0FA
:10133800011F02D016F4007F1ED13C4B234013B18D
:1013480016F4007F1CD1344B234013B116F4007FF0
:101358001AD1334B3B401BB3324B23402BB116F40D
:10136800806F02D0304B234093B12F4B234013B1F1
:1013780016F4007F10D1F8BD2846FFF77BFAE8E79E
:101388002846FFF7BCFAE4E72846FFF7BEFAE0E78D
:101398002846FFF7B4FCEEE72846FFF753FDEAE7D7
:1013A800234B23402BB116F4806F02D01E4B2340F1
:1013B80053B11D4B2340002BDDD016F4007FDAD04B
:1013C8002846FFF7DAFDD6E72846FFF78AFDD2E779
:1013D800FFF77FFCCFE72846FFF7F8FECBE7284664
:1013E800FFF729FCC7E7124B23402BB116F4806F97
:1013F80002D00D4B234053B10B4B2340002BBAD0E6
:1014080016F4007FB7D02846FFF774FBB3E72846E9
:10141800FFF737FCAFE700BF020001001000010032
:101428000400100080000100040001000800010011
:101438004000010008B5806B0268136823F48063DC
:10144800136000234385426B1365826B136590F824
:101458003D30DBB2602B0DD0202380F83D300023D7
:1014680080F83E300268136823F001031360FFF729
:1014780005FE08BD202380F83D30002380F83E306B
:1014880003640268136823F001031360FFF7F7FD94
:10149800EFE70000002800F0BB8170B582B0044679
:1014A800036813F0010F3BD0A74B9B6803F00C03B4
:1014B800042B2CD0A44B9B6803F00C03082B21D0E1
:1014C8006368B3F5803F4FD0B3F5A02F52D09E4B41
:1014D8001A6822F480321A601A6822F480221A608C
:1014E8006368002B50D0FFF735F80546964B1B680C
:1014F80013F4003F14D1FFF72DF8401B6428F5D9E9
:1015080003208AE1904B5B6813F4800FD8D08E4B90
:101518001B6813F4003F03D06368002B00F07A8146
:10152800236813F0020F55D0874B9B6813F00C0FFC
:101538003ED0854B9B6803F00C03082B33D0E3683F
:10154800002B68D0814B01221A60FFF703F805468B
:101558007D4B1B6813F0020F54D1FEF7FBFF401BB5
:101568000228F5D9032058E1774A136843F48033F9
:101578001360B5E7744B1A6842F480221A601A683F
:1015880042F480321A60ABE7FEF7E4FF05466E4B83
:101598001B6813F4003FC3D0FEF7DCFF401B642830
:1015A800F5D9032039E1684B5B6813F4800FC6D185
:1015B800654B1B6813F0020F04D0E368012B01D0C0
:1015C80001202AE1604A136823F0F803216943EAFD
:1015D800C1031360236813F0080F40D0636963B335
:1015E8005B4B01221A60FEF7B5FF0546564B5B6F51
:1015F80013F0020F33D1FEF7ADFF401B0228F5D9D7
:1016080003200AE1504A136823F0F803216943EAEA
:10161800C1031360DEE74D4B00221A60FEF79AFF04
:101628000546494B1B6813F0020FD3D0FEF792FF13
:10163800401B0228F5D90320EFE0454B00221A6031
:10164800FEF788FF0546404B5B6F13F0020F06D08C
:10165800FEF780FF401B0228F5D90320DDE0236850
:1016680013F0040F79D0384B1B6C13F0805F33D123
:1016780000230193344B1A6C42F080521A641B6C9D
:1016880003F080530193019B0125324B1B6813F42F
:10169800807F23D0A368012B34D0052B38D02A4B68
:1016A8001A6F22F001021A671A6F22F004021A67F1
:1016B800A368002B36D0FEF74DFF0646224B1B6F62
:1016C80013F0020F48D1FEF745FF801B41F2883323
:1016D8009842F3D90320A0E00025D6E71D4A1368F5
:1016E80043F480731360FEF735FF0646194B1B68F9
:1016F80013F4807FCED1FEF72DFF801B0228F5D989
:1017080003208AE0104A136F43F001031367CFE701
:101718000D4B1A6F42F004021A671A6F42F0010269
:101728001A67C5E7FEF716FF0646074B1B6F13F04F
:10173800020F11D0FEF70EFF801B41F2883398424A
:10174800F3D9032069E000BF003802400000474297
:10175800800E474200700040E5B9A369002B5BD0BA
:10176800304A926802F00C02082A58D0022B17D08F
:101778002D4B00221A60FEF7EDFE0446294B1B682C
:1017880013F0007F42D0FEF7E5FE001B0228F5D9D2
:10179800032042E0234A136C23F080531364DCE7F0
:1017A800214B00221A60FEF7D5FE05461D4B1B682B
:1017B80013F0007F06D0FEF7CDFE401B0228F5D9B6
:1017C80003202AE0E369226A1343626A43EA821328
:1017D800A26A5208013A43EA0243E26A43EA026310
:1017E800104A5360104B01221A60FEF7B3FE0446FC
:1017F8000C4B1B6813F0007F06D1FEF7ABFE001BF5
:101808000228F5D9032008E0002006E0002004E0C3
:1018180001207047012000E0002002B070BD0120C7
:10182800FBE700BF0038024060004742264B9B6838
:1018380003F00C03042B44D0082B01D02348704735
:101848002DE9F04B204B5A6802F03F025B6813F415
:10185800800F13D01C4B5968C1F3881100231C4812
:10186800A1FB0001FEF7ACFC174B5B68C3F3014317
:1018780001335B00B0FBF3F0BDE8F08B124B5B6803
:10188800C3F388131E4600275C010025E41A65EBA4
:101898000705A90141EA9461A001001B61EB05015C
:1018A800CB0043EA5073C400A01943EB07018B0235
:1018B80043EA90538402204619460023FEF780FC31
:1018C800D2E70348704700BF003802400024F40004
:1018D80040787D01002800F09D8070B504464F4B8C
:1018E8001B6803F00F038B4209D2CBB24B4A13702B
:1018F800136803F00F038B4201D0012070BD2368E9
:1019080013F0020F17D013F0040F04D0444A936861
:1019180043F4E0539360236813F0080F04D0404A5F
:10192800936843F4604393603D4A936823F0F0035F
:10193800A068034393600D46236813F0010F32D06B
:101948006368012B21D09A1E012A25D9344A1268CE
:1019580012F0020F60D032498A6822F00302134362
:101968008B60FEF7F7FD06462D4B9B6803F00C03D2
:101978006268B3EB820F16D0FEF7ECFD801B41F2D4
:1019880088339842F0D90320B8E7254A126812F440
:10199800003FE0D10120B1E7214A126812F0007F30
:1019A800D9D10120AAE71D4B1B6803F00F03AB42F6
:1019B80009D9EAB2194B1A701B6803F00F03AB423E
:1019C80001D001209AE7236813F0040F06D0144AC7
:1019D800936823F4E053E1680B439360236813F0A2
:1019E800080F07D00E4A936823F46043216943EA3D
:1019F800C1039360FFF71AFF094B9B68C3F30313F6
:101A0800084AD35CD840084B18600020FEF758FD00
:101A1800002073E70120704701206FE7003C024077
:101A280000380240403A000808000020014B1868BE
:101A3800704700BF0800002008B5FFF7F7FF044B08
:101A48009B68C3F38223034AD35CD84008BD00BF18
:101A580000380240503A000808B5FFF7E7FF044B8A
:101A68009B68C3F34233034AD35CD84008BD00BF28
:101A780000380240503A000800283BD010B5044610
:101A88000023836290F85130002B2ED0022384F873
:101A980051302268136823F0400313606368A2681A
:101AA8001343E26813432269134362691343A2692B
:101AB80002F400721343E2691343226A1343A16AD2
:101AC80022680B431360638B03F00403616A226886
:101AD8000B4353602268D36923F40063D361002069
:101AE8006065012384F8513010BD80F8503001F052
:101AF800DDF8CBE70120704770B4036A23F00103D7
:101B08000362036A4268846924F073040D6845EA35
:101B1800040623F002048B6823430C4DA84202D02C
:101B28000B4CA0420BD123F00803CD682B4323F0C4
:101B3800040322F440724D6915438A692A434260BE
:101B480086614A684263036270BC704700000140C6
:101B58000004014030B4036A23F480730362036A0B
:101B68004268C46924F073040D682C4323F400739D
:101B78008D6843EA05230E4DA84203D005F580651C
:101B8800A8420ED123F40063CD6843EA052323F469
:101B9800806322F440524D6942EA05128D6942EA97
:101BA80005124260C4614A68C263036230BC704770
:101BB8000000014030B4036A23F480530362036ACF
:101BC8004468C26922F4E6420D6842EA052223F419
:101BD80000538D6843EA0533094DA84203D005F543
:101BE8008065A84204D124F480444D6944EA8514F0
:101BF8004460C2614A680264036230BC704700BF37
:101C08000000014010B4036A046A24F0010404626D
:101C1800846924F0F00444EA021223F00A030B4317
:101C2800826103625DF8044B704710B4036A23F0C5
:101C3800100303628469036A24F4704444EA02329C
:101C480023F0A00343EA0113826103625DF8044BA9
:101C58007047836823F0700341F0070119438160DE
:101C6800704710B4846824F47F4442EA03230B438A
:101C7800234383605DF8044B704790F83830012B9C
:101C88007DD010B50446012380F83830022380F84F
:101C980039300268936823F47F4323F07703936015
:101CA8000B68402B57D010D9702B3ED01FD8502B23
:101CB80047D0602B32D1CA6849680068FFF7B5FF82
:101CC80060212068FFF7C5FF28E0102B4DD008D908
:101CD800202B4FD0302B21D130210068FFF7B9FFDE
:101CE8001CE0DBB900210068FFF7B3FF16E0B3F58D
:101CF800805F0ED0B3F5005F10D1CB684A68896861
:101D08000068FFF7AEFF2268936843F4804393604E
:101D180004E00268936823F007039360012384F8C2
:101D28003930002084F8380010BDCB684A688968CB
:101D38000068FFF796FF2268936843F07703936083
:101D4800ECE7CA6849680068FFF75CFF5021206823
:101D5800FFF77FFFE2E7CA6849680068FFF752FFAC
:101D680040212068FFF775FFD8E710210068FFF7CA
:101D780070FFD3E720210068FFF76BFFCEE7022052
:101D880070477047704770477047704710B50446F2
:101D980003681A6912F0020F11D0DA6812F0020F04
:101DA8000DD06FF002021A610123037603689B6964
:101DB80013F0030F70D0FFF7E6FF002323762368A4
:101DC8001A6912F0040F12D0DA6812F0040F0ED05C
:101DD8006FF004021A610223237623689B6913F4C7
:101DE800407F5FD02046FFF7CEFF0023237623688D
:101DF8001A6912F0080F12D0DA6812F0080F0ED024
:101E08006FF008021A61042323762368DB6913F054
:101E1800030F4ED02046FFF7B6FF00232376236832
:101E28001A6912F0100F12D0DA6812F0100F0ED0E3
:101E38006FF010021A61082323762368DB6913F414
:101E4800407F3DD02046FFF79EFF0023237623687E
:101E58001A6912F0010F03D0DA6812F0010F36D1B7
:101E680023681A6912F0800F03D0DA6812F0800F25
:101E780034D123681A6912F0400F03D0DA6812F0DF
:101E8800400F32D123681A6912F0200F03D0DA68A4
:101E980012F0200F30D110BDFFF774FF2046FFF776
:101EA80073FF8AE72046FFF76DFF2046FFF76CFFB8
:101EB8009BE72046FFF766FF2046FFF765FFACE784
:101EC8002046FFF75FFF2046FFF75EFFBDE76FF094
:101ED80001021A612046FFF754FFC1E76FF0800244
:101EE8001A61204600F0B8F9C3E76FF040021A61A2
:101EF8002046FFF74AFFC5E76FF020021A61204627
:101F080000F0A9F9C7E7000003682E4A904212D0F2
:101F1800B0F1804F0FD0A2F57C4290420BD002F571
:101F28008062904207D002F58062904203D002F5A9
:101F38007842904203D123F070034A681343214A40
:101F480090422AD0B0F1804F27D0A2F57C4290422F
:101F580023D002F5806290421FD002F58062904241
:101F68001BD002F57842904217D002F57052904289
:101F780013D002F5806290420FD002F58062904241
:101F88000BD0A2F59832904207D002F580629042B9
:101F980003D002F58062904203D123F44073CA68EB
:101FA800134303608B68C3620B688362054B9842D6
:101FB80003D003F58063984201D10B6903630123C1
:101FC8004361704700000140A8B110B5044690F87D
:101FD80039305BB1022384F83930211D2068FFF7BE
:101FE80093FF012384F83930002010BD80F8383081
:101FF80001F0FCF9EEE701207047A8B110B50446DE
:1020080090F839305BB1022384F83930211D2068FB
:10201800FFF77AFF012384F83930002010BD80F8DB
:10202800383001F085FAEEE701207047002847D0E4
:10203800F8B505460C4690F83930002B3BD0022302
:1020480085F83930294651F8042B936823F00703A3
:1020580093602868FFF758FF29688A688E690F6AB5
:102068002068104326F4407626F00306A268A36988
:1020780042EA0323334323F47C4323F0FC03E6685A
:10208800E26946EA02261E43226A1303226943EAEA
:102098000213334327F0AA076268646942EA04120C
:1020A8003A43886029688B612B681A62012385F896
:1020B80039300020F8BD80F8383001F0D5F8BEE797
:1020C8000120704730B4036A23F010030362036AE7
:1020D8004468826922F4E6420D6842EA052223F048
:1020E80020038D6843EA05130E4DA84203D005F579
:1020F8008065A8420ED123F08003CD6843EA05131A
:1021080023F0400324F440644D6944EA85048D6952
:1021180044EA8504446082614A688263036230BC91
:10212800704700BF0000014038B590F83830012BE7
:1021380066D00D460446012380F83830022380F823
:1021480039300C2A1AD8DFE802F0071919192019B2
:1021580019193419191947000068FFF7CDFC2268CE
:10216800936943F0080393612268936923F0040399
:1021780093612268936929690B439361012384F869
:102188003930002084F8380038BD0068FFF79AFF1E
:102198002268936943F4006393612268936923F486
:1021A8008063936122689369296943EA01239361F3
:1021B800E4E70068FFF7CEFC2268D36943F0080320
:1021C800D3612268D36923F00403D3612268D369F9
:1021D80029690B43D361D1E70068FFF7EBFC22685C
:1021E800D36943F40063D3612268D36923F480631D
:1021F800D3612268D369296943EA0123D361BDE722
:102208000220C1E790F83830012B22D030B40122E7
:1022180080F83820022380F839300468636823F096
:1022280070036360046863680D682B436360046827
:10223800A36823F08003A3600468A36849680B437C
:10224800A36080F83920002380F83830184630BC65
:10225800704702207047704770470268D36823F4BC
:102268009073D3600268536923F0010353612023FC
:1022780080F83A30704790F83930DBB2212B2AD1F8
:102288008368B3F5805F16D0036A5A1C02621A7815
:1022980003685A60C38C013B9BB2C384EBB90268E4
:1022A800D36823F08003D3600268D36843F0400307
:1022B800D36000207047036A1B880268C3F30803D1
:1022C800536003691BB9036A02330362E2E7036AD6
:1022D80001330362DEE702207047002070470000E8
:1022E8002DE9F843044601680A6922F44052C3689C
:1022F80013430B610168CA6822F4164222F00C02EB
:1023080083680069034360690343E0690343134337
:10231800CB6021684A6922F44072A36913434B6178
:10232800E369B3F5004F60D02368B84A934200F0E0
:10233800148102F58062934200F00F81FFF77CFB65
:1023480000EB800000EB80006568AD00B0FBF5F5A0
:10235800AF4FA7FB05356D092E01FFF76DFB00EBAD
:10236800800000EB80006568AD00B0FBF5F9FFF771
:1023780063FB00EB800000EB80006568AD00B0FBFC
:10238800F5F5A7FB05356D094FF0640808FB1595B1
:102398002D013235A7FB05356D0905F0F0053544EB
:1023A800FFF74AFB00EB800000EB80006668B60090
:1023B800B0FBF6F6FFF740FB00EB800000EB800077
:1023C80063689B00B0FBF3F0A7FB0030400908FBF3
:1023D80010684FEA081808F13208A7FB0837C7F356
:1023E800431723682F449F600DE12368874A93426F
:1023F8005BD002F58062934257D0FFF71DFB00EBDC
:10240800800000EB800065686D00B0FBF5F5804F3B
:10241800A7FB05356D092E01FFF70EFB00EB8000C9
:1024280000EB800065686D00B0FBF5F9FFF704FB71
:1024380000EB800000EB800065686D00B0FBF5F5EF
:10244800A7FB05356D094FF0640808FB1595ED00ED
:102458003235A7FB05356D096D0005F4F87535446F
:10246800FFF7EAFA00EB800000EB80006668760070
:10247800B0FBF6F6FFF7E0FA00EB800000EB800017
:1024880063685B00B0FBF3F3A7FB03235B0908FB5E
:1024980013684FEAC80808F13208A7FB0837C7F3E2
:1024A800421723682F449F60ADE0FFF7D5FA00EB91
:1024B800800000EB800065686D00B0FBF5F5544FB7
:1024C800A7FB05356D092E01FFF7C6FA00EB800062
:1024D80000EB800065686D00B0FBF5F9FFF7BCFA0A
:1024E80000EB800000EB800065686D00B0FBF5F53F
:1024F800A7FB05356D094FF0640808FB1595ED003D
:102508003235A7FB05356D096D0005F4F8753544BE
:10251800FFF7A2FA00EB800000EB80006668760007
:10252800B0FBF6F6FFF798FA00EB800000EB8000AE
:1025380063685B00B0FBF3F3A7FB03235B0908FBAD
:1025480013684FEAC80808F13208A7FB0837C7F331
:10255800421723682F449F6055E0FFF77DFA00EB90
:10256800800000EB80006568AD00B0FBF5F5284FF2
:10257800A7FB05356D092E01FFF76EFA00EB800009
:1025880000EB80006568AD00B0FBF5F9FFF764FA71
:1025980000EB800000EB80006568AD00B0FBF5F54E
:1025A800A7FB05356D094FF0640808FB15952D014B
:1025B8003235A7FB05356D0905F0F0053544FFF701
:1025C8004BFA00EB800000EB80006668B600B0FBB9
:1025D800F6F6FFF741FA00EB800000EB8000636835
:1025E8009B00B0FBF3F0A7FB0030400908FB106824
:1025F8004FEA081808F13208A7FB0837C7F3431752
:1026080023682F449F60BDE8F88300BF0010014095
:102618001F85EB5158B310B5044690F839300BB309
:10262800242384F839302268D36823F40053D36014
:102638002046FFF755FE2268136923F4904313617F
:102648002268536923F02A0353612268D36843F44C
:102658000053D3600020E063202384F8393084F8E5
:102668003A3010BD80F8383001F020F9D8E7012061
:102678007047704708B50168CB6823F04003CB600A
:10268800202380F83930FFF7F4FF002008BD704799
:1026980008B590F83A30DBB2222B40D18368B3F505
:1026A800805F0ED0036903BB03685A68836A591CAC
:1026B80081621A70C38D013B9BB2C385F3B10020C0
:1026C8002EE0826A036943B903685B68C3F30803B1
:1026D8001380836A02338362ECE703685B68DBB2CA
:1026E8001380836A01338362E4E703685B68826A64
:1026F800511C816203F07F031370DBE70268D36823
:1027080023F49073D3600268536923F00103536183
:10271800202380F83A30FFF7BAFF002000E00220BB
:1027280008BD704710B5044602681368D16852693D
:1027380013F00F0005D113F0200F02D011F0200F75
:1027480053D1002867D012F0010202D111F4907F12
:1027580061D013F0010F06D011F4807F03D0E06B35
:1027680040F00100E06313F0040F04D01AB1E06BED
:1027780040F00200E06313F0020F04D01AB1E06BDE
:1027880040F00400E06313F0080F04D01AB1E26BC4
:1027980042F00802E263E26B002A48D013F0200FEF
:1027A80002D011F0200F24D123685B6903F04003A5
:1027B800E26B12F0080F00D13BB32046FFF74DFD46
:1027C80023685A6912F0400F1BD05A6922F0400260
:1027D8005A61636B8BB11A4A1A65606BFDF73DFF4E
:1027E80028B3606B036D984721E02046FFF750FF40
:1027F8001DE02046FFF74CFFD6E72046FFF791FF84
:1028080015E02046FFF78DFF11E02046FFF789FF0E
:102818000023E3630BE013F0800F02D011F0800F68
:1028280006D113F0400F02D011F0400F04D110BDB3
:102838002046FFF720FDFAE72046FFF71BFFF6E7E3
:102848004D28000808B5806B0023C385C384FFF7B3
:1028580068FF08BD2DE9F04F8DB000240194874B27
:102868001A6B42F010021A631A6B02F010020192FE
:10287800019A02941A6B42F004021A631A6B02F06E
:1028880004020292029A03941A6B42F080021A63BD
:102898001A6B02F080020392039A04941A6B42F0B6
:1028A80001021A631A6B02F001020492049A059459
:1028B8001A6B42F002021A631A6B02F002020592C6
:1028C800059A06941A6B42F008021A631B6B03F010
:1028D80008030693069BDFF8B4B122464FF47961EA
:1028E8005846FDF7B1FFDFF8A8A1224642F22001C1
:1028F8005046FDF7A9FFDFF89C812246102140468B
:10290800FDF7A2FF224643F227015D48FDF79CFF31
:102918005C4E224640F2C3113046FDF795FF4FF456
:10292800796307930125089509940A9407A95846DD
:10293800FDF7A6FE4FF400530793089509940A94EF
:1029480007A95046FDF79CFE10270797089509949C
:102958000A9407A94046FDF793FE0797089409943F
:1029680007A95046FDF78CFE4FF02008CDF81C80D3
:10297800089509944FF00209CDF8289007A9504608
:10298800FDF77EFE4FF0030ACDF81CA008950994C8
:10299800CDF8289007A93A48FDF772FE43F20403E0
:1029A8000793089509940A9407A93548FDF768FE26
:1029B8004FF4704307930894099407A95846FDF704
:1029C8005FFE4FF400630793DFF8CCB0CDF820B07A
:1029D800099407A92A48FDF753FE40F2C313079349
:1029E800089509940A9407A93046FDF749FE04237F
:1029F80007930894099507A93046FDF741FE082377
:102A080007930894099407A93046FDF739FE0797FC
:102A18000894CDF8249007A93046FDF731FECDF88B
:102A28001C80CDF820B0099507A93046FDF728FE8F
:102A38000797154B0893099407A91148FDF720FE3D
:102A4800CDF81C8008950994CDF828A007A90C4852
:102A5800FDF716FE224621460A20FDF793FD0A20BF
:102A6800FDF7C4FD224621462820FDF78BFD2820CE
:102A7800FDF7BCFD0DB0BDE8F08F00BF0038024087
:102A880000040240000C0240000011100010024037
:102A980000080240000002400000211008B50C4860
:102AA8000C4B03600C4B436000238360C3604FF4FE
:102AB8008042026143618361C3610362FEF72AF8C1
:102AC80000B908BD4221054800F03CF8F9E700BF0D
:102AD8002C00002000540040A0860100583A00084D
:102AE8000268154B9A4200D0704700B587B0C023E2
:102AF80001931223029301230393032304930423D2
:102B080005930DEB03010D48FDF7BAFD0021009177
:102B18000B4B1A6C42F400121A641B6C03F400137A
:102B28000093009B0A461F20FDF72CFD1F20FDF790
:102B38005DFD07B05DF804FB00540040000402404E
:102B480000380240FEE7000000B595B0002201926F
:102B58002A4B196C41F0805119641B6C03F08053A7
:102B68000193019B0292264B196841F48041196038
:102B78001B6803F480430293029B022308930121FC
:102B88000B9110210C910E930F9208221092602243
:102B9800119212930423139308A8FEF77BFC20BB21
:102BA8000F23039302230493002305934FF4A053A8
:102BB80006934FF480530793032103A8FEF78AFE78
:102BC800B8B9FEF733FF0F4BA3FB00308009FDF7C0
:102BD80019FD0420FDF72CFD002211464FF0FF30AF
:102BE800FDF7D0FC15B05DF804FBA5210648FFF7FA
:102BF800A9FFB3210448FFF7A5FF00BF0038024032
:102C080000700040D34D6210683A000808B5FDF71F
:102C18007BFCFFF799FFFFF71DFE00F0B3FA00F009
:102C2800E9F900F0AFF900F077F900F005FD00F0E0
:102C3800BDFD00F043FD00F07DFD00F0F9FDFFF75C
:102C48002DFF00F00FF800F013FE00F02DF900F052
:102C580043FA00F06BFA00F005FA00F0CDFA00F044
:102C6800E7FAFEE708B50E480E4B03604FF482738F
:102C7800436000238360C360036143614FF40072C3
:102C88008261C3610362436283620A23C362FEF7FF
:102C9800F3FE00B908BD45210348FFF753FFF9E7E4
:102CA8008000002000380040783A00080268164B7F
:102CB8009A4200D07047F0B587B00024009403F51D
:102CC80000331A6C42F480421A641B6C03F480438C
:102CD8000093009B0C230193022702970394032679
:102CE80004960525059501A90848FDF7C9FC4FF488
:102CF80080630193029703940496059501A90448FB
:102D0800FDF7BEFC07B0F0BD0038004000080240E7
:102D18000004024010B582B000240094214B5A6C84
:102D280042F480425A645A6C02F480420092009A3B
:102D380001941A6C42F080521A641B6C03F08053A1
:102D48000193019B0320FDF70BFC224621466FF0FF
:102D58000B00FDF717FC224621466FF00A00FDF72D
:102D680011FC224621466FF00900FDF70BFC2246B4
:102D780021466FF00400FDF705FC224621466FF05E
:102D88000300FDF7FFFB224621466FF00100FDF727
:102D9800F9FB224621464FF0FF30FDF7F3FB02B066
:102DA80010BD00BF003802407047FEE7FEE7FEE7AF
:102DB800FEE770477047704708B5FDF7BFFBFDF7A2
:102DC80048FC08BD08B51020FDF746FD08BD000009
:102DD80008B50248FEF77AFA08BD00BF2C000020AB
:102DE80008B50248FFF79EFC08BD00BF600400203C
:102DF80008B50248FFF796FC08BD00BF2004002074
:102E080008B54FF40060FDF727FD08BD08B5034875
:102E1800FEF7BCFF0248FEF7B9FF08BDD800002046
:102E28000402002008B50348FEF7B0FF0248FEF789
:102E3800ADFF08BDD80000206C03002008B502488B
:102E4800FEF7A4FF08BD00BF7C02002008B50248B9
:102E5800FEF79CFF08BD00BFE40300200F49D1F82E
:102E6800883043F47003C1F888300D4B1A6842F07B
:102E780001021A60002098601A6822F0847222F415
:102E880080321A60074A5A601A6822F480221A604F
:102E9800D8604FF000638B60704700BF00ED00E022
:102EA800003802401030002400B58DB01748184B88
:102EB80003600023436083604FF6FF72C2600361C2
:102EC80043610322039204930121059106930F2283
:102ED8000792089309910A930B9203A9FFF7A6F8A2
:102EE80050B900230193029301A90848FFF78AF912
:102EF80038B90DB05DF804FB57210648FFF722FEEC
:102F0800EFE75E210348FFF71DFEF2E7B802002055
:102F180000000140883A000800B58DB017484FF00E
:102F2800804303600023436083604FF0FF32C26038
:102F380003610322039204930121059106930F2252
:102F48000792089309910A930B9203A9FFF76EF869
:102F580050B900230193029301A90848FFF752F9D9
:102F680038B90DB05DF804FB78210548FFF7EAFD94
:102F7800EFE77F210248FFF7E5FDF2E73003002085
:102F8800883A000800B58DB01748184B0360002335
:102F9800436083604FF6FF72C260036103220392AD
:102FA80004930121059106930F2207920893099132
:102FB8000A930B9203A9FFF739F850B9002301933C
:102FC800029301A90848FFF71DF938B90DB05DF85B
:102FD80004FB99210648FFF7B5FDEFE7A021044857
:102FE800FFF7B0FDF2E700BFC80100200004004071
:102FF800883A000800B58DB01748184B03600023C5
:10300800436083604FF6FF72C2600361032203923C
:1030180004930121059106930F22079208930991C1
:103028000A930B9203A9FFF701F850B90023019303
:10303800029301A90848FFF7E5F838B90DB05DF823
:1030480004FBBA210648FFF77DFDEFE7C1210448DC
:10305800FFF778FDF2E700BF1401002000080040E8
:10306800883A000800B587B01848194B03602F2329
:103078004360002383604FF0FF32C2600361FEF7B4
:10308800A3FF98B906A94FF4805341F8103D0F48A3
:10309800FEF7F3FD78B900230093019369460B48C6
:1030A800FFF7B0F860B907B05DF804FBD221094812
:1030B800FFF748FDE6E7D8210648FFF743FDEAE7B2
:1030C800DF210448FFF73EFDEDE700BF8C0100203B
:1030D800000C0040883A000800B583B01048114B36
:1030E80003602F2343600023836042F21073C360A0
:1030F800FEF76AFF50B90023009301936946084818
:10310800FFF780F838B903B05DF804FBEE210648F4
:10311800FFF718FDEFE7F5210348FFF713FDF2E786
:103128007C02002000100040883A000800B583B0F7
:103138001148124B03602F2343600023836042F23F
:103148001073C360FEF740FF50B90023009301934A
:1031580069460948FFF756F840B903B05DF804FB23
:103168004FF482710648FFF7EDFCEEE740F20B11D1
:103178000348FFF7E7FCF0E7E403002000140040F1
:10318800883A000800B58DB01848194B0360002331
:10319800436083604FF6FF72C2600361436103229C
:1031A800039204930121059106930F220792089335
:1031B80009910A930B9203A9FEF738FF50B900232F
:1031C8000193029301A90948FFF71CF840B90DB013
:1031D8005DF804FB4FF493710648FFF7B3FCEEE784
:1031E80040F22D110348FFF7ADFCF0E7D8000020AE
:1031F80000040140883A000808B50A480A4B0360F1
:103208004FF41663436000238360C3600361FEF7D5
:10321800DBFE00B908BD4FF4DE710448FFF792FCED
:10322800F8E700BF04020020001C0040883A0008AC
:1032380008B50A480A4B03602F23436000238360C4
:1032480040F2DC52C2600361FEF7BEFE00B908BD61
:1032580040F2CB110348FFF775FCF8E76C03002038
:1032680000200040883A000870B58AB00368564AC2
:1032780093420DD0B3F1804F25D0544A934247D0A2
:10328800534A93425DD0534A934274D00AB070BDFA
:103298000023009302F59C32516C41F00101516406
:1032A800526C02F001020092009A4FF440720592AB
:1032B80002220692079308930123099305A9464819
:1032C800FDF7DEF9E2E70024019403F50E331A6CEA
:1032D80042F001021A641B6C03F001030193019B85
:1032E8004FF4004305930226069607940894012597
:1032F800099505A93848FDF7C3F9082305930696EB
:1033080007940894099505A93448FDF7B9F9BDE76C
:103318000023029302F50D32116C41F00201116491
:10332800126C02F002020292029AC0220592022254
:10333800069207930893099205A92748FDF7A0F973
:10334800A4E70023039302F50C32116C41F0040149
:103358001164126C02F004020392039A4FF4405273
:1033680005920222069207930893099205A91C4820
:10337800FDF786F98AE7002404941A4B5A6C42F048
:1033880002025A645B6C03F002030493049BC0239B
:10339800059302230693079408940323099305A928
:1033A8001148FDF76DF9224621462C20FDF7EAF871
:1033B8002C20FDF71BF9224621462D20FDF7E2F8C7
:1033C8002D20FDF713F961E70000014000040040DB
:1033D80000080040000401400000024000040240D0
:1033E800000C0240003802400008024000B589B0D5
:1033F8000368474A934225D0464A934231D0464A09
:10340800934242D0454A934253D0454A93425DD0B5
:10341800444A934267D0444A93421FD100210791FE
:10342800424B1A6C42F480721A641B6C03F480736A
:103438000793079B0A462D20FDF7A4F82D20FDF7DA
:10344800D5F80BE000230193384B1A6C42F00802C0
:103458001A641B6C03F008030193019B09B05DF823
:1034680004FB00210291314B1A6C42F010021A64DD
:103478001B6C03F010030293029B0A463620FDF7EB
:1034880081F83620FDF7B2F8E8E700210391274BD1
:103498001A6C42F020021A641B6C03F02003039399
:1034A800039B0A463720FDF76DF83720FDF79EF895
:1034B800D4E7002304931D4B5A6C42F400325A643B
:1034C8005B6C03F400330493049BC7E70023059364
:1034D800164B5A6C42F480225A645B6C03F48023C6
:1034E8000593059BBAE700210691104B1A6C42F030
:1034F80080021A641B6C03F080030693069B0A463D
:103508002C20FDF73FF82C20FDF770F8A6E700BF48
:10351800000C00400010004000140040004401402E
:1035280000480140001C00400020004000380240D4
:1035380082B00368104A934204D0104A93420ED0D6
:1035480002B07047002300930D4B5A6C42F480324E
:103558005A645B6C03F480330093009BF0E700230C
:103568000193074B1A6C42F040021A641B6C03F07B
:1035780040030193019BE3E700400140001800402D
:103588000038024000B587B00368254A93420BD043
:10359800244A934216D0244A934222D0234A934283
:1035A8002ED007B05DF804FB602301930223029339
:1035B8000023039304930323059301A91C48FDF7F3
:1035C8005FF8EEE74FF48073019302230293002320
:1035D800039304930323059301A91648FDF750F8B4
:1035E800DFE74FF400730193022302930023039350
:1035F80004930323059301A90E48FDF741F8D0E78A
:103608004FF440430193022302930023039304934E
:103618000923059301A90748FDF732F8C1E700BF60
:1036280000400140004401400048014000180040AB
:10363800001002400004024000B589B01C481D4B30
:10364800036001234360002383604FF41662C26065
:103658000361FEF7D2FCC8B96023019300220292ED
:103668000392042305930DEB03011148FEF75CFD5B
:1036780090B904220DEB02010D48FEF755FD88B9FB
:103688000B48FFF77FFF09B05DF804FB40F23D11DE
:103698000948FFF757FADFE74FF4A3710648FFF729
:1036A80051FAE6E740F24B110348FFF74BFAE7E718
:1036B800F402002000400140883A000800B589B0B3
:1036C80019481A4B03600023436083604FF4166265
:1036D800C2600361FEF778FCA0B91348FEF78DFCC1
:1036E800B0B960230193002202920392059201A9C6
:1036F8000D48FEF719FD88B90B48FFF743FF09B0DD
:103708005DF804FB40F25D110948FFF71BFAE4E796
:103718004FF4B1710648FFF715FAE2E740F26B1172
:103728000348FFF70FFAE7E7500100200044014083
:10373800883A000800B589B019481A4B036000237D
:10374800436083604FF41662C2600361FEF73CFC7D
:10375800A0B91348FEF751FCB0B9602301930022C9
:1037680002920392059201A90D48FEF7DDFC88B983
:103778000B48FFF707FF09B05DF804FB40F27D1125
:103788000948FFF7DFF9E4E74FF4C1710648FFF78E
:10379800D9F9E2E740F28B110348FFF7D3F9E7E7DD
:1037A8004002002000480140883A000800B589B06E
:1037B8001C481D4B03600023436083604FF416626E
:1037C800C2600361FEF719FCC8B9602301930022A7
:1037D80002920392042305930DEB03011148FEF7AF
:1037E800A3FC90B904220DEB02010E48FEF79CFCE5
:1037F80088B90C48FFF7C6FE09B05DF804FB40F233
:103808009D110A48FFF79EF9DFE74FF4D371074887
:10381800FFF798F9E6E740F2AB110448FFF792F991
:10382800E7E700BFA803002000180040883A000816
:1038380008B50C480C4B03604FF4E1334360002398
:103848008360C36003610C2242614FF4407282615D
:10385800C361FEF7DFFE00B908BD43210348FFF747
:1038680071F9F9E76004002000440040983A000824
:1038780008B50B480B4B03604FF4E133436000235A
:103888008360C36003610C2242618361C361FEF7F8
:10389800C1FE00B908BD56210348FFF753F9F9E7FF
:1038A8002004002000480040983A00082DE9F04123
:1038B80088B003682E4A934205D02E4A934232D0EC
:1038C80008B0BDE8F081002401942B4B1A6C42F437
:1038D80000321A641B6C03F400330193019B032527
:1038E80003954FF00208CDF8108005940695072738
:1038F8000797224E03A93046FCF7C2FE0C23039318
:10390800CDF81080012305930695079703A9304643
:10391800FCF7B6FE224621462620FCF733FE262079
:10392800FCF764FECCE700250295134B1A6C42F4B1
:1039380080221A641B6C03F480230293029B4FF4C9
:1039480040630393022304930123059303230693FF
:103958000724079403A90A48FCF792FE2A46214641
:103968002720FCF70FFE2720FCF740FEA8E700BF42
:103978000044004000480040003802400000024077
:1039880000080240DFF834D0002103E00C4B5B58FC
:10399800435004310B480C4B42189A42F6D30B4A59
:1039A80002E0002342F8043B094B9A42F9D3FFF79F
:1039B80055FA00F011F8FFF729F9704700000220C6
:1039C800B83A0008000000200C0000200C0000207D
:1039D800A0040020FEE7000070B50D4E0D4CA41B9E
:1039E800A4100025A54209D10B4E0C4C00F018F884
:1039F800A41BA4100025A54205D170BD56F825309A
:103A080098470135EEE756F8253098470135F2E733
:103A1800B03A0008B03A0008B03A0008B43A0008D2
:103A2800F8B500BFF8BC08BC9E467047F8B500BFA3
:083A3800F8BC08BC9E46704773
:103A4000000000000000000001020304060708094E
:103A500000000000010203042E2E2F5372632F6911
:103A600032632E63000000002E2E2F5372632F6DE1
:103A700061696E2E630000002E2E2F5372632F7328
:103A800070692E63000000002E2E2F5372632F7476
:103A9000696D2E63000000002E2E2F5372632F7568
:083AA000736172742E630000D3
:083AA80050C7FF7F0100000080
:043AB000AD0100085C
:043AB400890100087C
:0C3AB80001000000100000000024F400D9
:040000050800398D29
:00000001FF
