:020000040800F2
:1000000000000820B9470008F5170008F717000896
:10001000F9170008FB170008FD1700080000000092
:10002000000000000000000000000000FF170008B2
:100030000118000800000000031800080518000857
:10004000094800080948000809480008094800084C
:10005000094800080948000809480008094800083C
:100060000948000809480008094800080D18000858
:10007000094800080948000809480008094800081C
:10008000094800080948000809480008094800080C
:100090000948000809480008094800081D18000818
:1000A00009480008094800080948000809480008EC
:1000B0000948000809480008094800082D180008E8
:1000C0000948000809480008094800083D180008C8
:1000D00009480008094800080948000809480008BC
:1000E0004D18000809480008094800080948000898
:1000F0000948000809480008094800086118000874
:10010000094800080948000809480008094800088B
:100110000948000871180008094800080948000843
:10012000811800080948000891180008A118000863
:10013000094800080948000809480008094800085B
:10014000094800080948000809480008094800084B
:10015000094800080948000809480008094800083B
:10016000094800080948000809480008094800082B
:100170000948000809480008094800080000000074
:10018000094800080948000809480008094800080B
:10019000B118000809480008094800080948000883
:1001A00009480008094800080948000809480008EB
:1001B000C118000809480008094800080948000853
:1001C0000948000809480008000000000948000824
:1001D00009480008094800080948000809480008BB
:1001E00009480008094800080948000809480008AB
:0801F000094800080948000855
:1002000010B5054C237833B9044B13B10448AFF350
:1002100000800123237010BDA0000020000000001A
:100220009050000808B5034B1BB103490348AFF3D6
:10023000008008BD00000000A400002090500008CD
:1002400053B94AB9002908BF00281CBF4FF0FF313D
:100250004FF0FF3000F072B9ADF1080C6DE904CE3B
:1002600000F006F8DDF804E0DDE9022304B0704791
:100270002DE9F047089E04468846002B4BD18A4260
:10028000154667D9B2FA82F24AB1C2F1200701FAE3
:1002900002F320FA07F7954047EA030894404FEA33
:1002A000154E230CB8FBFEF71FFA85FC0EFB1788D2
:1002B00043EA084307FB0CF1994209D9EB1807F10F
:1002C000FF3080F01B81994240F21881023F2B449D
:1002D0005B1AA4B2B3FBFEF00EFB103344EA0344F6
:1002E00000FB0CFCA44509D92C1900F1FF3380F068
:1002F0000781A44540F2048102382C4440EA0740BB
:10030000A4EB0C0400271EB1D4400023C6E900432F
:100310003946BDE8F0878B4209D9002E00F0EB800A
:100320000027C6E9000138463946BDE8F087B3FA30
:1003300083F7002F47D18B4202D3824200F2FA802A
:10034000841A61EB030301209846002EE0D0C6E931
:100350000048DDE702B9FFDEB2FA82F2002A40F07F
:100360008F80491B4FEA154E1FFA85F80127B1FB14
:10037000FEFC230C0EFB1C1143EA014308FB0CF1AD
:10038000994207D9EB180CF1FF3002D2994200F2E2
:10039000CD808446591AA3B2B1FBFEF00EFB1014B7
:1003A00043EA044408FB00F8A04507D92C1900F1E2
:1003B000FF3302D2A04500F2B6801846A4EB080431
:1003C00040EA0C409FE7C7F1200CBB4022FA0CFE2C
:1003D0004EEA030E01FA07F420FA0CF521FA0CF3A9
:1003E0004FEA1E482543B3FBF8F92C0C08FB1933E0
:1003F0001FFA8EFA44EA034309FB0AF49C4202FA0C
:1004000007F200FA07F10BD91EEB030309F1FF30E5
:1004100080F087809C4240F28480A9F102097344F5
:100420001B1BADB2B3FBF8F008FB103345EA0344E5
:1004300000FB0AFAA24508D91EEB040400F1FF33C1
:100440006BD2A24569D90238744440EA0940A0FB46
:100450000289A4EB0A044C45C2464B4654D351D002
:10046000002E69D0B1EB0A0564EB030404FA0CFC1E
:10047000FD40FC404CEA0505C6E90054002747E76B
:10048000C2F1200320FA03F7954001FA02F021FAA5
:1004900003F34FEA154E3843010CB3FBFEF71FFA86
:1004A00085F80EFB173341EA034107FB08F38B4243
:1004B00004FA02F407D9691807F1FF3C2FD28B42E6
:1004C0002DD9023F2944CB1A81B2B3FBFEF00EFBBB
:1004D000103341EA034100FB08F38B4207D9691846
:1004E00000F1FF3C17D28B4215D902382944C91AB2
:1004F00040EA07473BE73746304609E70746E7E665
:100500001846FBE64145ABD2B8EB020A69EB0E0296
:1005100001381346A4E76046E9E7184695E76746C1
:10052000D1E781467CE702382C4447E7ACF1020C66
:100530002B442FE7384608E73746E9E6704700BF07
:10054000034613F8012B002AFBD1181A0138704713
:1005500001F0FF01102A2BDB10F0070F08D010F874
:10056000013B013A8B422DD010F0070F42B3F6D178
:10057000F0B441EA012141EA014122F007047FF091
:1005800000070023F0E80256083C85EA010586EAE8
:10059000010685FA47F5A3FA87F586FA47F6A5FA24
:1005A00087F68EB9EED1F0BC01F0FF0102F0070230
:1005B00032B110F8013B013A83EA010313B1F8D1DB
:1005C0000020704701387047002D06BF35460338BC
:1005D000073815F0010F07D1013015F4807F02BFF5
:1005E000013015F4C03F0130F0BC0138704700BF46
:1005F0002DE9F04F8FB0002409940A940B940C94C9
:100600000D94934B1A6B42F010021A631A6B02F0AE
:1006100010020192019A1A6B42F004021A631A6BDB
:1006200002F004020292029A1A6B42F020021A634C
:100630001A6B02F020020392039A1A6B42F08002B6
:100640001A631A6B02F080020492049A1A6B42F049
:1006500001021A631A6B02F001020592059A1A6BE5
:1006600042F002021A631A6B02F002020692069A24
:100670001A6B42F040021A631A6B02F040020792B2
:10068000079A1A6B42F008021A631B6B03F0080307
:100690000893089BDFF8C8B1224648F21301584678
:1006A00001F04AFDDFF8BCA122464FF4005150464C
:1006B00001F042FDDFF8B091224640F22441484665
:1006C00001F03AFD22464FF47841624801F034FDD2
:1006D000614F224640F20311384601F02DFDDFF84C
:1006E0008C8122464621404601F026FD5B4E224683
:1006F0004FF40871304601F01FFD0C2309930A9452
:100700000B9409A9584601F027FC48F213030993FA
:1007100001250A950B940C9409A9584601F01CFC7C
:100720004FF4005309930A950B940C9409A9504671
:1007300001F012FC44F2304309930A940B9409A986
:10074000504601F009FC40F2244309930A950B94AA
:100750000C9409A9484601F0FFFB40F618030993E1
:100760000A940B9409A9484601F0F6FB40F20343B2
:1007700009930A940B9409A9304601F0EDFB4FF45C
:10078000784309930A950B940C9409A9314801F018
:10079000E3FB40F2031309930A950B940C9409A907
:1007A000384601F0D9FB4FF404630993DFF8C09099
:1007B000CDF828900B9409A9304601F0CDFB802399
:1007C00009930A940B9409A9384601F0C5FB0995D1
:1007D0000A940B9409A9404601F0BEFB46230993F5
:1007E0000A950B940C9409A9404601F0B5FB20230F
:1007F0000993CDF828900B9409A9404601F0ACFB71
:100800004FF480430993CDF828900B9409A93846FA
:1008100001F0A2FB4FF4087309930A950B940C9412
:1008200009A9304601F098FB22462146172001F025
:1008300023F9172001F052F922462146282001F021
:100840001BF9282001F04AF90FB0BDE8F08F00BF76
:100850000038024000140240001802400004024028
:10086000001002400008024000000240000C02405C
:100870000000111000B583B01E4B1A6B42F48002C9
:100880001A631A6B02F480020092009A1A6B42F407
:1008900000121A631B6B03F400130193019B0022E7
:1008A00011460B2001F0E8F80B2001F017F90022A7
:1008B00011462F2001F0E0F82F2001F00FF900225F
:1008C0001146382001F0D8F8382001F007F900224D
:1008D00011463A2001F0D0F83A2001F0FFF800224A
:1008E00011463B2001F0C8F83B2001F0F7F803B0B7
:1008F0005DF804FB0038024030B58DB020220021A5
:1009000004A803F0B2FF00240094019402940D4D5A
:100910004FF080432B606C60AC604FF6FF73EB6070
:100920002C61AC61012303930593099303A9284625
:1009300002F0EEFE009402946946284603F00EF998
:100940000DB030BD4C0E002030B58DB020220021FE
:1009500004A803F08AFF00240094019402940D4D32
:100960000D4B2B606C60AC604FF6FF73EB602C613D
:10097000AC61012303930593099303A9284602F070
:10098000C7FE009402946946284603F0E7F80DB0CC
:1009900030BD00BF340B00200004004030B58DB0E6
:1009A0002022002104A803F060FF00240094019499
:1009B00002940D4D0D4B2B606C60AC604FF6FF73D5
:1009C000EB602C61AC61012303930593099303A9A8
:1009D000284602F09DFE009402946946284603F0E2
:1009E000BDF80DB030BD00BFC809002000080040B0
:1009F00030B58DB02022002104A803F036FF00247A
:100A00000094019402940E4D0E4B2B606C60AC6010
:100A10004FF6FF73EB602C616C61AC6101230393B3
:100A20000593099303A9284602F072FE00940194ED
:100A300002946946284603F091F80DB030BD00BF1E
:100A4000080D00200000014030B58DB020220021AB
:100A500004A803F00AFF00240094019402940D4DB1
:100A60000D4B2B606C60AC604FF6FF73EB602C613C
:100A7000AC61012303930593099303A9284602F06F
:100A800047FE009402946946284603F067F80DB0CB
:100A900030BD00BFF40A0020000C004030B585B026
:100AA0000024019402940394094D0A4B2B60D72330
:100AB0006B60AC60EC60AC61284602F0F7FD01941D
:100AC000039401A9284603F049F805B030BD00BFE2
:100AD000C80C00200010004030B585B000240194FF
:100AE00002940394094D0A4B2B60D7236B60AC60D2
:100AF000EC60AC61284602F0D9FD0194039401A991
:100B0000284603F02BF805B030BD00BF6C0F002065
:100B10000014004008B50648064B0360D723436025
:100B200000238360C3600361836102F0BFFD08BDE1
:100B3000240C00200048014008B50648064B03601D
:100B4000D723436000238360C3600361836102F0A5
:100B5000ADFD08BDE40B0020001C004008B50648B0
:100B6000064B0360D723436000238360C3600361A7
:100B7000836102F09BFD08BDEC0E002000200040C8
:100B800030B597B000241394149415940C940D94DC
:100B90000E940F941094119412942C22214601A8C3
:100BA00003F063FE254D264B2B60D7236B60AC60B2
:100BB000EC602C616C61AC61284602F090FD1394EE
:100BC0001494159413A9284602F0C8FF60230C93CF
:100BD0000D940E940F9410944FF48073119312940B
:100BE00022460CA9284603F02FF804220CA9284617
:100BF00003F02AF8119408220CA9284603F024F8DF
:100C00000C220CA9284603F01FF8019402940394C7
:100C1000049405944FF400530693079408944FF0FE
:100C2000007309930A940B9401A9284602F0C2FFAD
:100C3000284600F01FFD17B030BD00BF8809002016
:100C40000004014030B589B000240194029403945B
:100C500004940594069407940E4D0F4B2B60D723F4
:100C60006B60AC60EC602C61AC61284602F01EFD4C
:100C7000284602F034FD6023019302940394059406
:100C8000224601A9284602F0DFFF284600F0F2FCC8
:100C900009B030BD540A00200044014030B589B08D
:100CA00000240194029403940494059406940794F8
:100CB000104D114B2B60D7236B60AC60EC602C6146
:100CC000AC61284602F00BFD60230193029403946B
:100CD0000594224601A9284602F0B6FF04220DEB36
:100CE0000201284602F0B0FF284600F0C3FC09B01C
:100CF00030BD00BFA80D00200040014038B50D4CAC
:100D00000D4B23600D4B63600025A5600123E3605C
:100D100025616561A561E5612562204601F022FA41
:100D20002946204601F084FA2946204601F0AEFA11
:100D300038BD00BF080A0020005400400D030060C9
:100D400008B50E480E4B03604FF4827343600023D6
:100D500083604FF4E062C260036143614FF480221C
:100D60008261C3610362436283620722C2620363DA
:100D70000823436302F0ECFA08BD00BF640C0020B6
:100D80000034014008B50E480E4B03604FF48273E7
:100D90004360002383604FF4E062C26003614361FB
:100DA0004FF480228261C36103624362836207223F
:100DB000C26203630823436302F0CAFA08BD00BF9E
:100DC000E80D00200030014008B50948094B0360D8
:100DD0004FF4E133436000238360C36003610C225E
:100DE00042618361C3610362436203F05EFC08BD3C
:100DF000740B00200050004008B50948094B0360FF
:100E0000FF234360012282600023C36002614361CB
:100E100083618022C261036201F006FC08BD00BF4D
:100E20000C100020001000A010B584B00023009327
:100E30000193029303930A4C0A4A2260D72262600C
:100E4000A360E3602361A361204602F02FFC4FF40E
:100E5000805300936946204602F076FD04B010BD31
:100E60002C0F00200018004030B5B9B0342200210A
:100E70002BA803F0FAFC00242694279428942994A4
:100E80002A949022214602A803F0EFFC214B1A6C11
:100E900042F080521A641B6C03F080530093009B55
:100EA0001D4B1A6842F440421A601B6803F4404329
:100EB0000193019B01232B934FF4A0232C93022534
:100EC00031954FF48003329310233393D823349316
:100ED000359536952BA801F00BFC01F019FA0F237C
:100EE0002693279528944FF4A05329934FF48053C9
:100EF0002A93072126A801F051FE44F210430293E1
:100F000017941B944FF08073109302A801F01EFFFA
:100F100039B030BD003802400070004008B5BFF362
:100F20004F8FBFF36F8F324B0021C3F850125A69B5
:100F300042F400325A61BFF34F8FBFF36F8FC3F893
:100F40008410BFF34F8FD3F88040C4F34E310FE0CD
:100F50001A4643F6E07303EA411343EA82732448D6
:100F6000C0F86032531E002AF2D14B1E19B1194647
:100F7000C4F3C902EDE7BFF34F8F436943F48033F5
:100F80004361BFF34F8FBFF36F8F00F03FFDFFF75B
:100F90006BFFFFF72DFBFFF76DFCFFF7ADFCFFF7D5
:100FA000D3FCFFF7FBFCFFF779FDFFF795FDFFF79B
:100FB000E7FDFFF747FEFFF71BFDFFF76FFEFFF7AB
:100FC00043FDFFF79BFEFFF7BBFEFFF7FDFEFFF7BC
:100FD000D9FEFFF711FFFFF79DFDFFF725FFFFF794
:100FE000ABFDFFF7BBFD03F0CDFB00F099FCFEE786
:100FF00000ED00E07047000082B00A4B1A6C42F02E
:1010000080521A641A6C02F080520092009A5A6C54
:1010100042F480425A645B6C03F480430193019B69
:1010200002B070470038024030B589B00023039306
:1010300004930593069307930268284B9A4201D0C4
:1010400009B030BD0446264D2B6B43F002032B63E1
:101050002B6B03F002030193019B4FF4C0730393C6
:101060001223049301230593032306930423079378
:1010700003A91C4800F070FF202001F033F9402044
:1010800001F030F92B6C43F400132B642B6C03F448
:1010900000130293029B1448144B03604FF000733B
:1010A000436000238360C3604FF480620261436148
:1010B0008361C3610362436200F0ACFD58B90A4B1F
:1010C000E3639C63002211461F2000F0D5FC1F2023
:1010D00000F004FDB4E7FFF78DFFF0E70054004097
:1010E0000038024000040240480D00201060024019
:1010F0002DE9F0418AB000230593069307930893E6
:10110000099302683B4B9A4202D00AB0BDE8F081D5
:101110000446394B9A6B42F002029A639A6B02F0D2
:1011200002020192019A1A6B42F002021A631A6BD0
:1011300002F002020292029A1A6B42F010021A6343
:101140001A6B02F010020392039A1A6B42F0040227
:101150001A631B6B03F004030493049B042305939D
:1011600002270697032608964FF00908CDF8248039
:1011700005A9224800F0F0FE4FF4F06305930697AE
:101180000025079508960A23099305A91C4800F035
:10119000E3FE4FF400630593069707950896CDF894
:1011A000248005A9174800F0D7FE1748174B0360A5
:1011B0004FF0B053436040238360C5604FF48063B9
:1011C000036145618561C5614FF480330362456207
:1011D00000F020FD58B90C4BE3639C6300221146DC
:1011E0005C2000F049FC5C2000F078FC8DE7FFF704
:1011F00001FFF0E7001000A00038024000040240A8
:10120000001002400008024028090020406402400B
:10121000F0B58BB00446002305930693079308931B
:1012200009930368504A934204D0504A934257D0DE
:101230000BB0F0BD4E4B5A6C42F480525A645A6C5B
:1012400002F480520092009A1A6B42F008021A636C
:101250001A6B02F008020192019A1A6B42F04002E6
:101260001A631B6B03F040030293029B80230593D8
:1012700002250695032708970526099605A93D48E6
:1012800000F06AFE4FF4606305930695002507950C
:101290000897099605A9384800F05EFE3748384B94
:1012A00003604FF0C06343608560C5604FF48063A6
:1012B000036145618561C5610562456200F0AAFC74
:1012C00058B92E4BA3659C6300221146232000F0E1
:1012D000D3FB232000F002FCAAE7FFF78BFEF0E728
:1012E000234B5A6C42F400525A645A6C02F4005276
:1012F0000392039A1A6B42F010021A631B6B03F0FD
:1013000010030493049B4FF4F043059302230693C8
:10131000032308930523099305A91A4800F01CFE2E
:1013200019481A4B03604FF0206343600023836029
:10133000C3604FF48062026143618361C3610362F1
:10134000436200F067FC58B90F4BA3659C63002211
:101350001146542000F090FB542000F0BFFB67E7DB
:10136000FFF748FEF0E700BF0030014000340140C5
:1013700000380240000C0240001802408C0E002091
:101380001064024000100240940A00205864024099
:1013900030B591B000230B930C930D930E930F93E4
:1013A00003685E4A93420ED0B3F1804F2AD05C4A64
:1013B00093425BD05B4A934275D05B4A934200F004
:1013C000908011B030BD594B5A6C42F001025A6402
:1013D0005A6C02F001020092009A1A6B42F001026C
:1013E0001A631B6B03F001030193019B4FF44073DD
:1013F0000B9302230C9301230F930BA94C4800F08D
:10140000ABFDDEE703F50E331A6C42F001021A64FD
:101410001A6C02F001020292029A1A6B42F0010267
:101420001A631A6B02F001020392039A1A6B42F0DC
:1014300002021A631B6B03F002030493049B4FF434
:1014400000430B9302250C9501240F940BA93848F7
:1014500000F082FD08230B930C9500230D930E934F
:101460000F940BA9334800F077FDAAE72F4B1A6CB5
:1014700042F002021A641A6C02F002020592059A06
:101480001A6B42F001021A631B6B03F0010306930F
:10149000069BC0230B9302230C930F930BA92448A4
:1014A00000F05AFD8DE7214B1A6C42F004021A64D9
:1014B0001A6C02F004020792079A1A6B42F00802B3
:1014C0001A631B6B03F008030893089B4FF4405307
:1014D0000B9302230C930F930BA9174800F03CFDCC
:1014E0006FE7124B1A6C42F008021A641A6C02F091
:1014F00008020992099A1A6B42F001021A631B6BE7
:1015000003F001030A930A9B03230B9302230C931A
:101510000F930BA9064800F01FFD52E700000140A1
:101520000004004000080040000C00400038024069
:101530000000024000040240000C024088B0036832
:10154000314A93421CD0314A934225D0304A9342CB
:101550002DD0304A934235D02F4A93423DD02F4A66
:10156000934245D02E4A934214D12E4B1A6C42F42A
:1015700080721A641B6C03F480730793079B09E065
:10158000284B1A6C42F010021A641B6C03F0100313
:101590000193019B08B07047224B1A6C42F0200265
:1015A0001A641B6C03F020030293029BF2E71D4BAD
:1015B0005A6C42F400325A645B6C03F400330393B8
:1015C000039BE7E7174B5A6C42F480225A645B6C2A
:1015D00003F480230493049BDCE7124B1A6C42F063
:1015E00040021A641B6C03F040030593059BD1E78E
:1015F0000C4B1A6C42F080021A641B6C03F08003DF
:101600000693069BC6E700BF001000400014004090
:10161000004401400048014000180040001C004008
:10162000002000400038024082B003680E4A934216
:1016300004D00E4A93420CD002B070470C4B5A6C47
:1016400042F002025A645B6C03F002030093009BB9
:10165000F2E7074B5A6C42F480325A645B6C03F435
:1016600080330193019BE7E7000401400040014003
:101670000038024000B589B000230393049305931A
:10168000069307930368264A934208D0254A93425B
:101690001BD0254A93422DD009B05DF804FB234BA3
:1016A0001A6B42F004021A631B6B03F004030093ED
:1016B000009B4FF470730393022304930323079357
:1016C00003A91B4800F048FCE6E7184B1A6B42F0F0
:1016D00010021A631B6B03F010030193019B60233C
:1016E0000393022304930323079303A9114800F0F3
:1016F00033FCD1E70D4B1A6B42F020021A631B6BCF
:1017000003F020030293029B4023039302230493DC
:101710000323079303A9084800F01EFCBCE700BFA1
:1017200000040140004001400044014000380240F4
:1017300000080240001002400014024010B588B0BA
:101740000023039304930593069307930268254BA4
:101750009A4201D008B010BD044603F5F4331A6C68
:1017600042F480121A641A6C02F480120192019AF7
:101770001A6B42F002021A631B6B03F0020302931E
:10178000029B4FF4405303930223049303230693D5
:101790000823079303A9144800F0DEFB1348144BF9
:1017A00003604FF000634360402383600023C36005
:1017B0004FF48062026143618361C36103624362EB
:1017C00000F028FA58B9094B23669C6300221146A1
:1017D000352000F051F9352000F080F9BAE7FFF725
:1017E00009FCF0E70050004000040240AC0F00206C
:1017F000B86002407047FEE7FEE7FEE7FEE770478D
:101800007047704708B500F013F908BD08B50248E5
:1018100000F0B4FA08BD00BF480D002008B5202034
:1018200000F092FC402000F08FFC08BD08B5024893
:1018300000F0F6FC08BD00BF080A002008B5024809
:1018400001F0E4FD08BD00BFE80D002008B54FF42D
:10185000006000F079FC4FF4804000F075FC08BD9A
:1018600008B5024800F08AFA08BD00BFAC0F00209E
:1018700008B5024802F03CFC08BD00BF740B002014
:1018800008B5024800F07AFA08BD00BF8C0E0020AF
:1018900008B5024800F072FA08BD00BF2809002010
:1018A00008B5024800F06AFA08BD00BF940A00209B
:1018B00008B5024801F0AAFD08BD00BF640C002075
:1018C00008B5024800F0AEFD08BD00BF0C100020B6
:1018D00010B40F4AD2F8883043F47003C2F888304D
:1018E0000C4B196841F001011960002098601C68D8
:1018F00009492140196009495960196821F480217A
:101900001960D8604FF0006393605DF8044B704736
:1019100000ED00E000380240FFFFF6FE103000242A
:1019200010B588B01E4B01221A601E4801F02AFE35
:101930001D4801F027FE1D4801F024FE1C4C2046E6
:1019400001F020FE204601F01DFE1A4B93E8030033
:1019500008AB03E90300BDF81C10069802F08EF8EE
:10196000154A04AB92E8030083E80300BDF81410A5
:1019700002F084F8114A02AB92E8030083E8030006
:10198000BDF80C1002F07AF80D4A6B4692E803009D
:1019900083E80300BDF8041002F070F808B010BD31
:1019A000BC000020080D0020C8090020340B0020D6
:1019B000F40A0020340000202C0000201C0000202D
:1019C0002400002010B504460E4B18784FF47A73AB
:1019D000B3FBF0F30C4A1068B0FBF3F000F08AF8A8
:1019E00068B90F2C01D901200AE0002221464FF0EE
:1019F000FF3000F041F8034B5C60002000E0012064
:101A000010BD00BF040000200000002008B5074AF8
:101A1000136843F480731360032000F01BF8002068
:101A2000FFF7D0FFFFF7E8FA002008BD003C0240B6
:101A3000034A1168034B1B780B441360704700BFC7
:101A40005810002004000020014B1868704700BFA8
:101A5000581000200649CB6823F4E0631B041B0CDC
:101A6000000200F4E0600343024A1A43CA60704770
:101A700000ED00E00000FA0530B4154BDB68C3F35D
:101A80000223C3F10704042C28BF04241D1D062DC6
:101A900014D9033B4FF0FF3505FA04F421EA0401A1
:101AA000994005FA03F322EA03031943002807DBF0
:101AB0000901C9B2074B195430BC70470023E9E74C
:101AC00000F00F000901C9B2034B1954F4E700BF3D
:101AD00000ED00E000E400E014ED00E000F01F0283
:101AE000400901239340024A42F82030704700BF6A
:101AF00000E100E00138B0F1807F0AD2064B586067
:101B0000064AF02182F823100020986007221A600C
:101B100070470120704700BF10E000E000ED00E0DA
:101B200030B405682C6824F480242C600468636059
:101B30008368402B05D0036899600368DA6030BC85
:101B4000704703689A600368D960F8E70268D3B207
:101B5000103B0949A1FB03131B090849C95CC16576
:101B6000032B04D8064B13408365806D7047044BEC
:101B7000134004338365F8E7ABAAAAAAC050000853
:101B800000FCFFFF836A826992B9012B0AD01BB166
:101B9000022B01D000207047C36A13F0807F2CD144
:101BA00000207047C36AB3F1C07F28D0002070477F
:101BB000B2F5005F05D0022B29D9032B15D00020E8
:101BC0007047032B03D8DFE803F01C041C0A002035
:101BD0007047C36A13F0807F15D100207047C36A35
:101BE000B3F1C07F11D000207047C36A13F0807F2B
:101BF00001D001207047002070470120704701206C
:101C00007047012070470120704701207047012074
:101C10007047000070B50446FFF716FF002C5BD03C
:101C20000546002384F83430022384F835302268D6
:101C3000136823F00103136023681A6812F0010F80
:101C40000AD0FFF701FF401B0528F5D92023636563
:101C5000032084F8350070BD1A6820481040616880
:101C6000A2680A43E1680A4321690A4361690A4399
:101C7000A1690A43E1690A43216A0A430243616A8E
:101C800004291ED01A602668756925F00705636A65
:101C90001D43042B07D1A36A1D43E36A1BB12046F1
:101CA000FFF770FF90B975612046FFF74FFFE26DB7
:101CB0003F239340836000206065012384F8353022
:101CC000C9E7E16A206B01430A43DBE74023636510
:101CD000012084F83500BEE70120BCE73F8010E01A
:101CE00038B5856D90F83440012C31D0012480F84E
:101CF000344090F83540E4B2012C04D0002380F841
:101D00003430022038BD0446022084F8350000201B
:101D100060652046FFF704FFE26D3F239340AB6010
:101D20002268136843F0160313602268536943F076
:101D300080035361236C23B12268136843F00803C6
:101D400013602268136843F0010313600020D9E791
:101D50000220D7E790F83530DBB2022B03D0802386
:101D6000436501207047052380F835300268136809
:101D700023F001031360002070470000F0B583B02A
:101D8000044600230193724B1D68724BA3FB05357B
:101D9000AD0A876D3E68C26D08239340334210D070
:101DA00003681A6812F0040F0BD01A6822F00402BC
:101DB0001A60C26D08239340BB60436D43F001037A
:101DC0004365E26D01239340334209D02268526992
:101DD00012F0800F04D0BB60636D43F002036365B3
:101DE000E26D04239340334209D02268126812F056
:101DF000020F04D0BB60636D43F004036365E26DC2
:101E000010239340334224D02268126812F0080F46
:101E10001FD0BB6023681A6812F4802F0DD01B6896
:101E200013F4002F04D1236C9BB12046984710E097
:101E3000A36C73B1204698470BE01A6812F4807FB8
:101E400003D11A6822F008021A60236C0BB12046F5
:101E50009847E26D20239340334255D022681268A0
:101E600012F0100F50D0BB6094F83530DBB2052B68
:101E70000ED023681A6812F4802F33D01B6813F435
:101E8000002F2AD1636C002B3ED0204698473BE0C0
:101E90002268136823F0160313602268536923F045
:101EA00080035361236CA3B12268136823F00803F5
:101EB0001360E26D3F239340BB60002384F834300D
:101EC000012384F83530236D002B3FD020469847FE
:101ED0003CE0A36C002BE7D1EBE7E36BA3B120461A
:101EE000984711E01A6812F4807F09D11A6822F02D
:101EF00010021A60002384F83430012384F835304E
:101F0000E36B0BB120469847636DFBB1636D13F033
:101F1000010F17D0052384F835302268136823F0A9
:101F200001031360019B01330193AB4204D8236882
:101F30001B6813F0010FF5D1002384F8343001231E
:101F400084F83530E36C0BB12046984703B0F0BD00
:101F500000000020B5814E1B00230F2B00F2E28011
:101F6000F0B482B039E0092200E00022B2403A43E6
:101F700002346D4E46F824206C4A1468EA4302EAA3
:101F800004064F6817F4803F01D045EA0406674C09
:101F90002660646802EA04064F6817F4003F01D027
:101FA00045EA0406614C6660A46802EA04064F68CC
:101FB00017F4801F01D045EA04065C4CA660E46873
:101FC00022404E6816F4001F01D045EA0402574C27
:101FD000E26001330F2B00F2A28001229A400C68CC
:101FE00004EA0205AA42F4D14C68122C18BF022C54
:101FF00010D1DE08083650F826C003F00704A70009
:102000000F24BC402CEA040C0C69BC4044EA0C04CC
:1020100040F8264004685F000326BE40F64306EA07
:10202000040C4C6804F00304BC4044EA0C04046053
:102030004C6804F1FF3C112C18BFBCF1010F01D911
:10204000122C11D1846806EA040CCC68BC4044EA26
:102050000C048460446824EA020C4C68C4F3001247
:102060009A4042EA0C024260C26816408A68BA404E
:102070003243C2604A6812F0805FAAD02C4A546C86
:1020800044F480445464526C02F480420192019AF8
:102090009C08A61C244A52F8267003F003029600FE
:1020A0000F22B24027EA0207224A90423FF45DAF76
:1020B00002F58062904222D002F58062904220D0E8
:1020C00002F5806290421ED002F5806290421CD0E0
:1020D00002F5806290421AD002F58062904218D0D8
:1020E00002F58062904216D002F58062904214D0D0
:1020F00002F5806290423FF436AF0A2236E70122B1
:1021000034E7022232E7032230E704222EE70522D9
:102110002CE706222AE7072228E7082226E702B052
:10212000F0BC7047704700BF00380140003C0140E0
:10213000003802400000024012B909048161704772
:10214000816170477047000008B5054B5B69034229
:1021500000D108BD024B5861FFF7F4FFF9E700BF5B
:10216000003C0140002857D010B5044690F841309B
:10217000002B41D0242384F841302268136823F0D7
:10218000010313606368226823F07063136122689F
:10219000936823F400439360E368012B31D0A36874
:1021A000226843F404439360E368022B2FD0226833
:1021B00051681A4B0B4353602268D36823F40043E1
:1021C000D360236962691343A169226843EA01234A
:1021D000D360E369216A22680B43136022681368A5
:1021E00043F00103136000206064202384F8413031
:1021F000206384F8420010BD80F84030FEF714FFE1
:10220000B8E7A368226843F400439360CCE72368EF
:102210004FF400625A60CAE7012070470080000254
:1022200008B5036899691A68436B03B1984708BDFC
:1022300090F84130DBB2202B24D190F84030012BB4
:1022400022D0012380F84030242380F841300268F6
:10225000136823F0010313600268136823F48053AA
:10226000136002681368194311600268136843F031
:1022700001031360202380F84130002380F84030B0
:1022800018467047022070470220704790F841308E
:10229000DBB2202B22D190F84030012B20D001233B
:1022A00080F84030242380F841300268136823F01E
:1022B000010313600268136823F4706343EA012189
:1022C00011600268136843F001031360202380F853
:1022D0004130002380F84030184670470220704794
:1022E0000220704782B0084B5A6C42F480425A6414
:1022F0005B6C03F480430193019B044A53681843C9
:10230000506002B0704700BF003802400038014002
:1023100010B582B01B4B1A6C42F080521A641B6CD1
:1023200003F080530193019B174A136843F48033F1
:102330001360FFF789FB0446134B5B6813F4803F7F
:1023400008D1FFF781FB001BB0F57A7FF4D9032099
:1023500002B010BD0C4A136843F400331360FFF75A
:1023600073FB0446084B5B6813F4003F07D1FFF78B
:102370006BFB001BB0F57A7FF4D90320E8E700205F
:10238000E6E700BF00380240007000402DE9F04150
:1023900005460F4616469846069C2B689B683B42AE
:1023A00014BF01230023B34212D0B4F1FF3FF4D095
:1023B0002CB1FFF749FBA0EB0800A042EDD90423A4
:1023C00085F841306B6C43F001036B64012000E041
:1023D0000020BDE8F081704708B5806B002383635F
:1023E000C36290F84130DBB2082B05D0012380F89E
:1023F0004130FFF7F0FF08BD03680222DA6002688F
:10240000136843F4003313600268136843F0020357
:102410001360F0E770477047704770477047704728
:102420007047000008B503689A68196812F0040F35
:102430003CD011F4802F39D090F84120D2B2122A2A
:102440000CD090F84120D2B2222A22D0FFF7E6FF2A
:1024500008BD136823F480231360F7E702689168CE
:1024600011F0040FF2D0C16A0029F2D0426A511C67
:102470004162127883F82020C26A013AC262EDE715
:10248000026B511C016393F820101170826B013AAA
:1024900082630268916811F0040FD7D0816B002924
:1024A000EED1136823F480231360CFE712F0020FFC
:1024B0006BD011F4003F68D00222DA600268136822
:1024C00023F4E023136090F84130DBB2122B17D0D5
:1024D00090F84130DBB2222B27D090F84130DBB2AC
:1024E000022B49D090F84130DBB2082BB0D1012348
:1024F00080F84130436C002B44D1FFF78BFFA7E7F6
:1025000003681A6812F0040F09D01A6822F0040256
:102510001A60C36B1A68136823F001031360012368
:1025200080F84130FFF779FF92E70268136813F0F3
:10253000040F0FD0136823F004031360C36B1A68F1
:10254000136823F001031360012380F84130FFF783
:1025500063FF7DE703689B6813F4F85FF4D0836B37
:10256000002BF1D0036B591C016392F820101970F5
:10257000836B013B8363EDE7012380F84130FFF774
:102580004AFF65E7FFF727FF62E712F0080F13D055
:1025900011F4002F10D00822DA6003681A6812F4D0
:1025A000800F06D01A6822F410221A60012380F8E6
:1025B0004130FFF734FF4BE712F0010F23D011F445
:1025C000803F20D00122DA600268136823F4702370
:1025D0001360436C43F00203436403681A6812F00B
:1025E000040F0AD01A6822F004021A60C36B0C4A66
:1025F0001A65C06BFFF7AEFB2AE7012380F8413074
:10260000FFF7E9FE24E712F0100F3FF421AF11F4B9
:10261000801F3FF41DAF1022DA60FFF701FF17E7BC
:10262000D92300088164704730B583B00446FFF7B2
:102630000BFA002C54D0054694F84030DBB2012B45
:1026400050D0012384F8403094F84130002B3CD026
:1026500021680B6823F4F853A268013A43EA022385
:102660000B60A36C00932B46002220212046FFF72D
:102670008DFE024618BB206803681B491940656837
:10268000E36843EA0563E5692B43256A2B430B4363
:10269000036020684168154B0B402569616941EA78
:1026A0000541A56929430B43436021680B6843F04A
:1026B00001030B6000236364012384F8413000238D
:1026C00084F84030104603B030BD84F840302046D6
:1026D000FEF70EFD41F288312046FFF7A3FFB7E772
:1026E0000122EFE70222EDE72FFFFF00FEF8E0FFF7
:1026F000002800F0DC8170B582B00446036813F056
:10270000010F29D0A24B9B6803F00C03042B1AD0B5
:102710009F4B9B6803F00C03082B0FD06368B3F545
:10272000803F40D0002B54D1994B1A6822F480325C
:102730001A601A6822F480221A6039E0944B5B68B0
:1027400013F4800FEAD0924B1B6813F4003F03D0C0
:102750006368002B00F0AD81236813F0020F75D081
:102760008B4B9B6813F00C0F5ED0894B9B6803F07A
:102770000C03082B53D0E368002B00F08A80844AB6
:10278000136843F001031360FFF75EF90546804BC1
:102790001B6813F0020F73D1FFF756F9401B022894
:1027A000F5D9032088E17A4A136843F48033136033
:1027B00063682BB3FFF748F90546754B1B6813F4A4
:1027C000003FC9D1FFF740F9401B6428F5D9032029
:1027D00072E1B3F5A02F09D06D4B1A6822F4803254
:1027E0001A601A6822F480221A60E1E7684B1A68BE
:1027F00042F480221A601A6842F480321A60D7E7E5
:10280000FFF722F90546624B1B6813F4003FA3D083
:10281000FFF71AF9401B6428F5D903204CE15C4B03
:102820005B6813F4800FA6D1594B1B6813F0020F9D
:1028300004D0E368012B01D001203DE1544A136824
:1028400023F0F803216943EAC1031360236813F0FE
:10285000080F46D0636983B34D4A536F43F00103B9
:102860005367FFF7F1F80546494B5B6F13F0020F12
:1028700037D1FFF7E9F8401B0228F5D903201BE107
:10288000434A136823F0F803216943EAC103136044
:10289000DCE73F4A136823F001031360FFF7D4F825
:1028A00005463B4B1B6813F0020FCFD0FFF7CCF867
:1028B000401B0228F5D90320FEE0354A536F23F070
:1028C00001035367FFF7C0F80546314B5B6F13F008
:1028D000020F06D0FFF7B8F8401B0228F5D90320F5
:1028E000EAE0236813F0040F7ED0294B1B6C13F031
:1028F000805F1ED1264B1A6C42F080521A641B6C0A
:1029000003F080530193019B0125224B1B6813F4B4
:10291000807F10D0A368012B21D0002B3CD11C4B11
:102920001A6F22F001021A671A6F22F004021A6766
:102930001AE00025E9E7174A136843F4807313602F
:10294000FFF782F80646134B1B6813F4807FE1D132
:10295000FFF77AF8801B6428F5D90320ACE00C4A15
:10296000136F43F001031367A3685BB3FFF76CF8C1
:102970000646074B1B6F13F0020F34D1FFF764F8C4
:10298000801B41F288339842F3D9032094E000BFC2
:102990000038024000700040052B09D0484B1A6FE8
:1029A00022F001021A671A6F22F004021A67DBE7AD
:1029B000434B1A6F42F004021A671A6F42F0010289
:1029C0001A67D1E7FFF740F806463D4B1B6F13F03F
:1029D000020F08D0FFF738F8801B41F28833984285
:1029E000F3D9032068E0F5B9A369002B63D0344A1A
:1029F000926802F00C02082A60D0022B19D0304AEB
:102A0000136823F080731360FFF71EF804462C4B05
:102A10001B6813F0007F48D0FFF716F8001B022850
:102A2000F5D9032048E0264A136C23F08053136441
:102A3000DAE7234A136823F080731360FFF704F882
:102A400005461F4B1B6813F0007F06D0FEF7FCFF06
:102A5000401B0228F5D903202EE0E369226A1343C4
:102A6000626A43EA8213A26A5208013A43EA0243C5
:102A7000E26A43EA0263226B43EA0273104A53603C
:102A8000136843F080731360FEF7DEFF04460C4BBF
:102A90001B6813F0007F06D1FEF7D6FF001B02284B
:102AA000F5D9032008E0002006E0002004E0012022
:102AB0007047012000E0002002B070BD0120FBE75C
:102AC00000380240324B9B6803F00C03042B5CD0AF
:102AD000082B01D02F4870472DE9F04B2C4B5A683A
:102AE00002F03F025B6813F4800F2BD0284B5B6829
:102AF000C3F388131E4600275C010025E41A65EB2A
:102B00000705A90141EA9461A001001B61EB0501E1
:102B1000CB0043EA5073C400A01943EB0701CB027A
:102B200043EA5053C402204619460023FDF788FBB0
:102B3000174B5B68C3F3014301335B00B0FBF3F059
:102B4000BDE8F08B124B5B68C3F388131E46002769
:102B50005C010025E41A65EB0705A90141EA9461CF
:102B6000A001001B61EB0501CB0043EA5073C400D8
:102B7000A01943EB07018B0243EA905384022046DD
:102B800019460023FDF75CFBD2E70348704700BFFE
:102B9000003802400024F4000048E801002800F05A
:102BA000A28070B50446524B1B6803F00F038B42A2
:102BB0000CD24F4A136823F00F030B4313601368C2
:102BC00003F00F038B4201D0012070BD236813F086
:102BD000020F17D013F0040F04D0464A936843F451
:102BE000E0539360236813F0080F04D0414A9368C0
:102BF00043F4604393603F4A936823F0F003A06876
:102C0000034393600D46236813F0010F31D06368CE
:102C1000012B20D0022B25D0364A126812F0020F69
:102C200063D034498A6822F0030213438B60FEF7B5
:102C30000BFF06462F4B9B6803F00C036268B3EB57
:102C4000820F16D0FEF700FF801B41F288339842B6
:102C5000F0D90320B9E7274A126812F4003FE0D107
:102C60000120B2E7234A126812F0007FD9D1012077
:102C7000ABE71F4B1B6803F00F03AB420CD91C4A98
:102C8000136823F00F032B431360136803F00F0343
:102C9000AB4201D0012098E7236813F0040F06D05F
:102CA000144A936823F4E053E1680B43936023686C
:102CB00013F0080F07D00F4A936823F4604321698B
:102CC00043EAC1039360FFF7FDFE0A4B9B68C3F321
:102CD0000313094AD35CD840084B18600020FEF764
:102CE00071FE002071E70120704701206DE700BFF1
:102CF000003C024000380240A850000800000020BC
:102D0000014B1868704700BF0000002008B5FFF7AE
:102D1000F7FF044B9B68C3F38223034AD35CD8407C
:102D200008BD00BF00380240B850000808B5FFF7E2
:102D3000E7FF044B9B68C3F34233034AD35CD8409C
:102D400008BD00BF00380240B8500008F0B583B09D
:102D50000446036813F0010F0CD0B54B9A6822F4B7
:102D600000029A609A68416B0A439A60436BC3B150
:102D7000002600E00026236813F4002F15D0AC4A8B
:102D8000D2F88C3023F44013E16B0B43C2F88C3043
:102D9000E36BB3F5801F06D0002B00F045810025C2
:102DA00004E00126E7E70126F6E70025236813F48F
:102DB000801F0FD09E4AD2F88C3023F44003216C40
:102DC0000B43C2F88C30236CB3F5800F00F02E81DA
:102DD00003B90125236813F0807F00D0012613F08A
:102DE000200F40F02781236813F0100F0CD0904B78
:102DF000D3F88C2022F08072C3F88C20D3F88C207A
:102E0000A16B0A43C3F88C20236813F4804F08D0C9
:102E1000874AD2F8903023F44033616E0B43C2F8F6
:102E20009030236813F4004F08D0814AD2F89030D4
:102E300023F44023A16E0B43C2F89030236813F4AF
:102E4000803F08D07A4AD2F8903023F44013E16EE4
:102E50000B43C2F89030236813F4003F08D0744A43
:102E6000D2F8903023F44003216F0B43C2F8903026
:102E7000236813F0400F08D06D4AD2F8903023F049
:102E80000303616C0B43C2F89030236813F0800F8A
:102E900008D0674AD2F8903023F00C03A16C0B43A2
:102EA000C2F89030236813F4807F08D0604AD2F8CB
:102EB000903023F03003E16C0B43C2F8903023686C
:102EC00013F4007F08D05A4AD2F8903023F0C003A0
:102ED000216D0B43C2F89030236813F4806F08D043
:102EE000534AD2F8903023F44073616D0B43C2F81B
:102EF0009030236813F4006F08D04D4AD2F8903018
:102F000023F44063A16D0B43C2F89030236813F49F
:102F1000805F08D0464AD2F8903023F44053E16DE8
:102F20000B43C2F89030236813F4005F08D0404A86
:102F3000D2F8903023F44043216E0B43C2F8903016
:102F4000236813F4800F08D0394AD2F8903023F068
:102F50008063A16F0B43C2F89030236813F4001F05
:102F60000DD0334AD2F8903023F00063E16F0B4369
:102F7000C2F89030E36FB3F1006F00F0C1802368B6
:102F800013F0080F00D0012513F4802F08D0284A31
:102F9000D2F8903023F04073616F0B43C2F8903049
:102FA000236813F4000F09D0214AD2F8903023F09F
:102FB0008053D4F880100B43C2F89030236813F08C
:102FC000806F09D01A4AD2F8903023F00053D4F819
:102FD00084100B43C2F89030236813F0006F09D0BF
:102FE000134AD2F88C3023F00073D4F888100B43C6
:102FF000C2F88C30236813F0805F09D00C4AD2F8F5
:103000008C3023F08063D4F88C100B43C2F88C30E2
:10301000002E77D12368B3F1007F73D0002D40F0EC
:103020000481002003B0F0BD0125BFE60126CFE6F4
:1030300000380240B74B1A6C42F080521A641B6C85
:1030400003F080530193019BB34A136843F48073E8
:103050001360FEF7F9FC0746AF4B1B6813F4807F43
:1030600006D1FEF7F1FCC01B6428F5D90320D9E78F
:10307000A84B1B6F13F4407315D0226B02F44072FF
:103080009A4210D0A34B1A6F22F44072196F41F488
:1030900080311967196F21F4803119671A671B6F26
:1030A00013F0010F12D1236B03F44072B2F5407F8D
:1030B0001DD0984A936823F4F813936095490B6FD9
:1030C000226BC2F30B0213430B678CE6FEF7BCFCCA
:1030D0000746904B1B6F13F0020FE4D1FEF7B4FCD0
:1030E000C01B41F288339842F3D903209AE78948FC
:1030F000826822F4F812894919400A438260DDE7A8
:1031000001253CE7834A136823F080631360FEF7D0
:103110009BFC06467F4B1B6813F0006F06D0FEF742
:1031200093FC801B6428F5D903207BE7236813F008
:10313000010F13D0636B8BB9764AD2F88430D2F882
:103140008410606803F4403343EA801301F0706137
:103150000B43A16843EA0173C2F88430236813F477
:10316000002F03D0E26BB2F5801F06D013F4801F4E
:103170001ED0236CB3F5800F1AD1664AD2F8843082
:10318000D2F88410606803F4403343EA8013E068A7
:1031900043EA006301F0E0410B43C2F88430D2F807
:1031A0008C3023F01F03616A01390B43C2F88C3065
:1031B000236813F0807F11D0564AD2F88400D2F8E9
:1031C0008410666823691B0443EA861300F070606C
:1031D000034301F0E0410B43C2F88430236813F04D
:1031E000007F0DD0626823691B0443EA8213E26802
:1031F00043EA0263A26843EA0273464AC2F8843093
:10320000444A136843F080631360FEF71DFC0646D2
:10321000404B1B6813F0006F7FF400AFFEF714FC07
:10322000801B6428F4D90320FCE63A4A136823F093
:1032300080531360FEF708FC0546364B1B6813F0FD
:10324000005F06D0FEF700FC401B6428F5D9032080
:10325000E8E6236813F4002F01D0E26B22B113F4E7
:10326000801F1DD0236CDBB92A4AD2F88830D2F8EF
:103270008810606903F4403343EA8013A06943EA8D
:10328000006301F0E0410B43C2F88830D2F88C3083
:1032900023F4F853A16A013943EA0123C2F88C30C0
:1032A000236813F4001F03D0E36FB3F1006F37D02E
:1032B000236813F0080F19D0164AD2F88810D2F8F4
:1032C0008830606903F4403343EA801301F0706191
:1032D0000B43E16943EA0173C2F88830D2F88C30BD
:1032E00023F44033E16A0B43C2F88C30094A136877
:1032F00043F080531360FEF7A7FB0446054B1B68A1
:1033000013F0005F1FD1FEF79FFB001B6428F5D967
:10331000032087E60038024000700040FFFCFF0FEA
:103320000A4AD2F88800D2F888106569236A1B041B
:1033300043EA851300F07060034301F0E0410B4362
:10334000C2F88830B4E700206CE600BF00380240C5
:10335000002858D010B504460023836290F85D30F1
:10336000002B45D0022384F85D302268136823F0D7
:1033700040031360E368B3F5E06F3ED90022B3F574
:10338000706F18BFB3F5E06F01D00021A162216B0F
:1033900021B9B3F5E06F33D9022323636368A168D1
:1033A0000B4321690B4361690B43A16901F400716F
:1033B0000B43E1690B43216A0B43A06A2168034375
:1033C0000B60638B03F00403616A0B43616B0B4377
:1033D000E1680B43216813434B602268D36923F4EF
:1033E0000063D36100202066012384F85D3010BDA6
:1033F00080F85C30FDF70CFFB4E74FF48052BEE775
:1034000001232363CAE701207047704710B584B0D9
:10341000044602685068936803F0410101290AD00C
:1034200013F0020F0ED010F0800F0BD0236D20464A
:10343000984704B010BD10F0400FF1D0E36C204667
:103440009847F6E713F4B07FF3D010F0200FF0D0D8
:1034500013F0400F0FD094F85D10C9B203294AD081
:10346000216E41F00401216600210091D168009194
:1034700091680091009913F0200F0CD0216E41F05B
:10348000010121660021029191680291116821F0E9
:1034900040011160029A13F4807F09D0236E43F03B
:1034A000080323660023039323689B680393039B0D
:1034B000236E002BBDD02268536823F0E0035360D5
:1034C000012384F85D3010F0030F1CD0226853688C
:1034D00023F003035360A36D23B10D4A1A65A06D59
:1034E000FEF738FC636D002BA3D0094A1A65606DA6
:1034F000FEF730FC9DE700230193D36801939368A6
:103500000193019B95E72046FFF77FFF91E700BFFE
:103510001535000808B5806B0023A0F84630C38736
:10352000FFF773FF08BD10B4036A046A24F00104B6
:103530000462846924F0F00444EA021223F00A03CE
:103540000B43826103625DF8044B704710B4036A59
:1035500023F0100303628469036A24F4704444EA8C
:10356000023223F0A00343EA0113826103625DF893
:10357000044B7047836823F0700341F0070119433F
:1035800081607047022380F83D300268136843F081
:1035900001031360012380F83D30002070470000D4
:1035A00070B403683A4CA04214BF00240124B0F167
:1035B000804F14BF224644F00102AAB9354DA842FB
:1035C00014BF00250125344EB0420DD065B905F178
:1035D000804505F58235A84214BF0025012506F572
:1035E0000066B04200D01DB123F070034D682B433C
:1035F000002A33D1274A904214BF00220122264DCF
:10360000A8422BD052BB02F1804202F58232904296
:1036100014BF0022012205F50065A8421ED0EAB9B8
:103620001E4A904214BF0022012205F59A35A84295
:1036300014D09AB91A4A904214BF0022012205F50B
:103640000065A8420AD04AB9164A904214BF002227
:103650000122A5F59635A84200D01AB123F4407393
:10366000CA68134323F080034A69134303608A68DE
:10367000C2620A6882620C4B984214BF234644F02F
:1036800001030BB10B6903630123436170BC7047F5
:1036900000000140000800400004004000440140D8
:1036A000001800400020004000040140A8B110B5FF
:1036B000044690F83D305BB1022384F83D30211D73
:1036C0002068FFF76DFF012384F83D30002010BD16
:1036D00080F83C30FDF732FFEEE701207047A8B1DB
:1036E00010B5044690F83D305BB1022384F83D30BC
:1036F000211D2068FFF754FF012384F83D3000208E
:1037000010BD80F83C30FDF78FFFEEE701207047D9
:10371000002843D0F8B505460C4690F83D30002B04
:1037200037D0022385F83D30294651F8042B9068A4
:103730001B4B034093602868FFF732FF28688168BD
:103740008369026A26680E43164F1F40A368A16969
:1037500043EA01231F43144B3B40E168E76941EA18
:10376000072119432769236A1B0343EA07130B4305
:1037700022F0AA016268646942EA04120A43866080
:1037800029688B612B681A62012385F83D3000207F
:10379000F8BD80F83C30FDF7FBFDC2E70120704723
:1037A000F8FFFEFFFCFCFFFF0303FFFF70B4036A9A
:1037B00023F001030362036A42688569104C2C40C0
:1037C0000D682C4323F002058B682B430D4E0E4DE4
:1037D000A84218BFB0420BD123F00803CD682B4399
:1037E00023F0040322F440724D6915438A692A4389
:1037F000426084614A684263036270BC704700BFE4
:103800008CFFFEFF000001400004014070B4036A19
:1038100023F010030362036A44688569124A2A4050
:103820000D6842EA052223F020038D6843EA051360
:103830000E4E0F4DA84218BFB0420ED123F08003A8
:10384000CD6843EA051323F0400324F440644D6936
:1038500044EA85048D6944EA8504446082614A68CB
:103860008263036270BC7047FF8CFFFE0000014062
:103870000004014070B4036A23F480730362036A96
:103880004268C569124C2C400D682C4323F4007328
:103890008D6843EA05230F4E0F4DA84218BFB04272
:1038A0000ED123F40063CD6843EA052323F480633B
:1038B00022F440524D6942EA05128D6942EA05122E
:1038C0004260C4614A68C263036270BC704700BF53
:1038D0008CFFFEFF000001400004014070B4036A49
:1038E00023F480530362036A4468C5690D4A2A4081
:1038F0000D6842EA052223F400538D6843EA05333C
:10390000094E0A4DA84218BFB04204D124F48044A5
:103910004D6944EA85144460C2614A6802640362E6
:1039200070BC7047FF8CFFFE0000014000040140A6
:1039300010B4846824F47F4442EA03230B432343F6
:1039400083605DF8044B704790F83C30012B7DD0CC
:1039500010B50446012380F83C30022380F83D3046
:10396000026890683A4B034093600B68402B59D033
:1039700010D9702B3ED01FD8502B49D0602B32D19C
:10398000CA6849682068FFF7E1FD60212068FFF7F9
:10399000F1FD28E0102B4FD008D9202B51D0302B2F
:1039A00021D130212068FFF7E5FD1CE0DBB90021C3
:1039B0002068FFF7DFFD16E0B3F5805F0ED0B3F5AA
:1039C000005F10D1CB684A6889682068FFF7B0FFB4
:1039D0002268936843F48043936004E0226891680E
:1039E0001C4B0B409360012384F83D30002084F889
:1039F0003C0010BDCB684A6889682068FFF798FFD3
:103A000022689168144B0B4043F077039360EAE718
:103A1000CA6849682068FFF786FD50212068FFF7D3
:103A2000A9FDE0E7CA6849682068FFF77CFD4021EE
:103A30002068FFF79FFDD6E710212068FFF79AFD69
:103A4000D1E720212068FFF795FDCCE702207047E1
:103A50008800FEFFF8FFFEFF88FFFEFF10B4012381
:103A600003FA01F4036A23EA04030362036A8A4047
:103A7000134303625DF8044B7047000010B5044621
:103A800001220068FFF7EAFF23680849084A9342C9
:103A900018BF8B4203D15A6C42F400425A64226828
:103AA000136843F001031360002010BD00000140C3
:103AB0000004014070B4036A23F480330362036A94
:103AC0004268446D0D4D25400C682C4323F40033AF
:103AD0008D6843EA05430A4E0A4DA84218BFB0421A
:103AE00004D122F480324D6942EA052242604465E5
:103AF0004A688265036270BC704700BF8FFFFEFF9B
:103B0000000001400004014070B4036A23F48013F4
:103B10000362036A4468456D0D4A2A400D6842EA13
:103B2000052223F400138D6843EA0553094E0A4D1C
:103B3000A84218BFB04204D124F480244D6944EA5D
:103B40008524446042654A68C265036270BC704760
:103B5000FF8FFFFE000001400004014090F83C3060
:103B6000012B21D070B4012380F83C3003685A68DF
:103B70009D680E4E0E4CA34218BFB34203D122F4EF
:103B800070024C68224322F070020C68224325F038
:103B90008004896821435A6003689960002380F893
:103BA0003C30184670BC704702207047000001404E
:103BB0000004014090F83C30012B3FD030B4012389
:103BC00080F83C30CB6823F440738A68134323F4B5
:103BD00080634A68134323F400630A68134323F4A1
:103BE00080530A69134323F400534A69134323F4AF
:103BF00080438A6A134323F40043134323F470235E
:103C00008A6943EA024302680D4D0E4CA24218BF76
:103C1000AA420CD123F470034C6A43EA045323F004
:103C20008073CC69234323F00073096A0B43536408
:103C3000002380F83C30184630BC704702207047A3
:103C4000000001400004014038B590F83C30012BE1
:103C500000F092800D460446012380F83C30022398
:103C600080F83D30142A1ED8DFE802F00B1D1D1D20
:103C7000241D1D1D381D1D1D4B1D1D1D5F1D1D1DE2
:103C800072000068FFF792FD2268936943F0080311
:103C900093612268936923F0040393612268936916
:103CA00029690B439361012384F83D30002084F897
:103CB0003C0038BD0068FFF7A9FD2268936943F412
:103CC000006393612268936923F48063936122689F
:103CD0009369296943EA01239361E4E70068FFF7E8
:103CE000C9FD2268D36943F00803D3612268D36910
:103CF00023F00403D3612268D36929690B43D3619C
:103D0000D1E70068FFF7EAFD2268D36943F4006356
:103D1000D3612268D36923F48063D3612268D369B5
:103D2000296943EA0123D361BDE70068FFF7C2FEBA
:103D30002268536D43F0080353652268536D23F0E6
:103D4000040353652268536D29690B435365AAE741
:103D50000068FFF7D9FE2268536D43F40063536592
:103D60002268536D23F4806353652268536D29697B
:103D700043EA0123536596E702209AE790F86930F9
:103D8000DBB2212B2ED1B0F852309BB28BB18368BD
:103D9000B3F5805F19D0C36C5A1CC2641A780368EB
:103DA0009A62B0F85230013B9BB2A0F8523000202A
:103DB00070470268136823F0800313600268136879
:103DC00043F040031360002070470369002BE2D1E9
:103DD000C36C1B880268C3F308039362C36C02338D
:103DE000C364DEE7022070470268136823F0C00353
:103DF0001360202380F8693070470268136823F449
:103E0000907313600268936823F00103936020238A
:103E100080F86A30704790F86A30DBB2202B4DD1C1
:103E2000B2FA82F35B09002908BF0123002B47D1B6
:103E300090F86830012B45D0012380F86830416547
:103E4000A0F85820A0F85A208368B3F5805F06D008
:103E5000A3B9036973B9FF23A0F85C3011E00369CB
:103E600023B940F2FF13A0F85C300AE0FF23A0F86A
:103E70005C3006E07F23A0F85C3002E0B3F1805FA5
:103E800012D00023C366222280F86A2080F86830AE
:103E900001688A6842F001028A6001680A6842F497
:103EA00090720A601846704703691BB97F23A0F817
:103EB0005C30E6E73F23A0F85C30E2E70220704781
:103EC000012070470220704738B590F86950EDB274
:103ED000202D35D1B2FA82F56D09002908BF0125E0
:103EE000002D2FD190F86830012B2DD013460446B9
:103EF000012280F86820C164A0F85030A0F8523048
:103F0000C566212280F86920026E1048D063226EB7
:103F10000F481064226E0F48D064226E1565226827
:103F20002832206EFDF7DCFE236840221A6284F8F6
:103F300068502268936843F080039360284600E04D
:103F4000022038BD0120FCE70220FAE7BD3F00084F
:103F50000B4000089B4000082DE9F04105460F4644
:103F600016469846069C2B68DB6937EA03030CBFAC
:103F700001230023B3421DD1B4F1FF3FF3D02CB194
:103F8000FDF762FDA0EB0800A042ECD32A6813689D
:103F900023F4D07313602A68936823F001039360BD
:103FA000202385F8693085F86A30002385F8683069
:103FB000032000E00020BDE8F081704708B5836B66
:103FC0000268126812F4807F0DD10022A3F85220FB
:103FD00019688A6822F080028A601A68136843F0C0
:103FE0004003136008BD1846FFF7E7FFFAE708B57E
:103FF00001680B6823F040030B60202380F86930D0
:10400000FFF7DBFF002008BD704708B5806BFFF7A6
:10401000FBFF08BD7047B0F85C2090F86A30DBB257
:10402000222B32D110B58368B3F5805F10D00368BE
:10403000596AD2B2436D5C1C44650A401A70B0F8EC
:104040005A30013B9BB2A0F85A306BB1002010BD32
:104050000369002BEBD1436D0168496A0A401A805D
:10406000436D02334365EAE70268136823F49073F3
:1040700013600268936823F001039360202380F8A3
:104080006A30FFF7C7FF0020E1E70268936943F059
:104090000803936102207047704710B5846B0023BA
:1040A000A4F85A30A4F8523094F86930DBB2212BCE
:1040B0000CD094F86A30DBB2222B10D0E36E43F0C0
:1040C0001003E3662046FFF7E7FF10BD23689B68F7
:1040D00013F0800FEDD02046FFF786FEE9E7236856
:1040E0009B6813F0400FE9D02046FFF786FEE5E716
:1040F00038B504460268D3691068916813F00F055B
:1041000005D113F0200F02D010F0200F5FD1002D49
:1041100073D011F0010102D110F4907F6DD013F033
:10412000010F07D010F4807F04D001251562E26EE4
:104130002A43E26613F0020F07D031B1226802254C
:104140001562E26E42F00402E26613F0040F07D03B
:1041500031B1226804251562E26E42F00202E26685
:1041600013F0080F09D010F0200F00D129B12268F8
:1041700008211162E26E0A43E266E26E002A48D02C
:1041800013F0200F02D010F0200F24D1E36E13F0B3
:10419000080F04D123689B6813F0400F27D02046F6
:1041A000FFF72BFE23689A6812F0400F1BD09A6825
:1041B00022F040029A60636E8BB11A4A1A65606EF3
:1041C000FDF7C8FD28B3606E036D984721E02046D7
:1041D000FFF721FF1DE02046FFF71DFFD6E7204631
:1041E000FFF75AFF15E02046FFF756FF11E0204683
:1041F000FFF752FF0023E3660BE013F0800F02D0BD
:1042000010F0800F06D113F0400F02D010F0400FD5
:1042100004D138BD2046FFF7B1FDFAE72046FFF78D
:10422000E6FEF6E72942000808B5806B0023A0F8F7
:104230005A30A0F85230FFF72FFF08BD10B50446E2
:1042400083680269134342691343C26913430168D7
:1042500008689D4A024013430B602268536823F4A8
:104260004053E1680B435360A369226A1A432168F3
:104270008B6823F4306313438B602368934A934223
:1042800019D0934A93422AD0924A934240D0924AFC
:10429000934255D0914A93426AD0914A934200F09A
:1042A0008280904A934200F099808F4A934200F0B6
:1042B000B0801022C9E002F59432D2F8902002F0CA
:1042C0000302032A03D8DFE802F0BF060408102225
:1042D000BBE00222B9E00422B7E00822B5E002F513
:1042E000FA32D2F8902002F00C020C2A08D8DFE84B
:1042F00002F0BA0707070B070707090707070D00B2
:104300001022A2E00222A0E004229EE008229CE00B
:1043100002F5F832D2F8902002F03002102A0DD0C7
:1043200005D9202A08D0302A04D108228DE00AB904
:1043300000228AE0102288E0022286E0042284E043
:1043400002F5F632D2F8902002F0C002402A0DD0D9
:1043500005D9802A08D0C02A04D1082275E00AB9FC
:10436000002272E0102270E002226EE004226CE073
:1043700002F5F432D2F8902002F44072B2F5807F58
:104380000FD007D9B2F5007F09D0B2F5407F04D134
:1043900008225AE00AB9002257E0102255E0022212
:1043A00053E0042251E002F59232D2F8902002F458
:1043B0004062B2F5806F0FD007D9B2F5006F09D017
:1043C000B2F5406F04D108223FE00AB901223CE077
:1043D00010223AE0022238E0042236E002F5E03210
:1043E000D2F8902002F44052B2F5805F0FD007D986
:1043F000B2F5005F09D0B2F5405F04D1082224E095
:104400000AB9002221E010221FE002221DE004224E
:104410001BE002F5DE32D2F8902002F44042B2F501
:10442000804F0FD007D9B2F5004F09D0B2F5404FF9
:1044300004D1082209E00AB9002206E0102204E0B3
:10444000022202E0042200E00122E169B1F5004FFE
:104450000BD0082A00F29B80DFE802F0616D7999A9
:10446000839999998F000022EFE7082A54D8DFE852
:1044700002F0051722533F5353534A00FEF746FC00
:104480006268530803EB4003B3FBF2F39BB20020D6
:1044900023F00F02C3F3420313432268D36010BD1D
:1044A000FEF744FC6268530803EB4003B3FBF2F3EE
:1044B0009BB20020ECE762680C4B03EB5203B3FBAA
:1044C000F2F39BB20020E3E7F369FFEF0010014035
:1044D0000044004000480040004C004000500040B4
:1044E0000014014000780040007C00400048E801D2
:1044F000FEF7E8FA6268530803EB4003B3FBF2F3FC
:104500009BB20020C4E76268530803F58033B3FB15
:10451000F2F39BB20020BBE701200023B8E7FEF7CF
:10452000F5FB636800EB5300B0FBF3F0236880B247
:10453000D8600020B3E7FEF7F9FB636800EB530097
:10454000B0FBF3F0236880B2D8600020A7E7616871
:10455000104A02EB5102B2FBF1F292B2DA60002093
:104560009DE7FEF7AFFA636800EB5300B0FBF3F092
:10457000236880B2D860002091E761684A0802F59C
:104580000042B2FBF1F292B2DA60002087E701202C
:1045900085E700BF0024F400436A13F0010F06D042
:1045A0000268536823F40033816A0B435360436A03
:1045B00013F0020F06D00268536823F48033C16AF7
:1045C0000B435360436A13F0040F06D0026853682C
:1045D00023F48023016B0B435360436A13F0080FED
:1045E00006D00268536823F40043416B0B435360C9
:1045F000436A13F0100F06D00268936823F48053C7
:10460000816B0B439360436A13F0200F06D002685E
:10461000936823F40053C16B0B439360436A13F018
:10462000400F0AD00268536823F48013016C0B43D7
:104630005360036CB3F5801F0BD0436A13F0800FF7
:1046400006D00268536823F40023816C0B43536047
:1046500070470268536823F4C003416C0B435360F6
:10466000EBE710B582B004460023C366FDF7ECF912
:104670002268126812F0080F09D1202384F86930EB
:1046800084F86A30002084F8680002B010BD6FF032
:104690007E430093034600224FF400112046FFF7AB
:1046A0005BFC0028E9D00320EFE778B310B504469F
:1046B00090F869300BB3242384F8693022681368BA
:1046C00023F0010313602046FFF7B8FD012813D043
:1046D000636ABBB92268536823F49043536022682D
:1046E000936823F02A0393602268136843F0010360
:1046F00013602046FFF7B5FF10BD80F86830FDF766
:104700001DF8D8E72046FFF747FFE3E70120704791
:1047100038B50D46084B93F86930DBB2202BF9D140
:10472000064C2A460146204600F094F82A462146C7
:104730000148FFF7C9FB38BD740B0020200500209D
:1047400010B50446FBF7FCFEC1B22046FFF7E0FFC0
:1047500010BD00000FB410B582B004AA52F8041BBB
:104760000192074C204600F057F92046FFF7E8FF7A
:10477000002084F8040802B0BDE8104004B070477F
:104780002001002038B5094D002485F84448C5F8BB
:1047900040480748FFF7DEFF012229460548FFF79A
:1047A0003AFB85F84448204638BD00BFE0000020B1
:1047B000CC500008740B0020DFF834D0002103E057
:1047C0000C4B5B58435004310B480C4B42189A4237
:1047D000F6D30B4A02E0002342F8043B094B9A420D
:1047E000F9D3FDF775F800F011F8FCF797FB704767
:1047F000000008205C51000800000020A0000020FC
:10480000A000002060100020FEE7000070B50D4EF3
:104810000D4CA41BA4100025A54209D10B4E0C4C35
:1048200000F036FCA41BA4100025A54205D170BDE4
:1048300056F8253098470135EEE756F82530984769
:104840000135F2E754510008545100085451000852
:104850005851000810B5431E0A44914200D110BDC2
:1048600011F8014B03F8014FF7E702440346934266
:1048700000D1704703F8011BF9E7000038B5054681
:10488000002945D051F8043C0C1F002BB8BFE41898
:1048900000F0CCF81F4A1368104633B96360146007
:1048A0002846BDE8384000F0C2B8A3420CD92168C0
:1048B0006218934204BF1A685B68636004BF5218B1
:1048C00022600460ECE713465A680AB1A242FAD9A2
:1048D00019685818A0420BD1206801445818824228
:1048E0001960DDD1106852685A6001441960D7E739
:1048F00002D90C232B60D3E7206821188A4204BF19
:1049000011685268626004BF091821605C60C7E7E3
:1049100038BD00BFD400002070B5CD1C25F00305C4
:1049200008350C2D38BF0C25002D064601DBA942A9
:1049300003D90C233360002070BD00F077F8214AC2
:104940001468214691B9204C23681BB9304600F009
:104950003DF820602946304600F038F8431C24D149
:104960000C233360304600F062F8E4E70B685B1B11
:1049700018D40B2B0FD90B60CD50CC18304600F05B
:1049800056F804F10B00231D20F00700C31AD3D002
:104990005A42E250D0E78C424B6816BF6360136006
:1049A0000C46EBE70C464968CCE7C41C24F0030432
:1049B000A04205D0211A304600F008F80130CFD0CF
:1049C0002560DBE7D4000020D800002038B5064C75
:1049D000002305460846236000F04CFB431C02D12F
:1049E000236803B12B6038BD5C10002000B59BB07C
:1049F000009104916FF000410591029105490391E6
:104A0000694600F06FF8009B00221A701BB05DF839
:104A100004FB00BF0802FFFF13460A460146024896
:104A20000068FFF7E3BF00BF3C00002070477047FD
:104A30002DE9F0478E689E4282460C469046994684
:104A400037D88A8912F4906F31D0256809696F1AB6
:104A50006569022305EB450595FBF3F509F10103B3
:104A60003B449D4238BF1D46530530D52946FFF7CC
:104A700053FF064650B90C23CAF80030A38943F00F
:104A80004003A3814FF0FF30BDE8F0873A4621692B
:104A9000FFF7E0FEA38923F4906343F08003A38132
:104AA000266165613E44ED1B2660A5604E464E457D
:104AB00000D94E4632464146206800F093FAA3687A
:104AC0009B1BA36023681E4426600020DCE72A4667
:104AD00000F0A1FA06460028E2D121695046FFF70E
:104AE000CDFEC8E72DE9F04F1D468B891F069DB00E
:104AF00080460C4616460FD50B696BB94021FFF76F
:104B00000BFF2060206128B90C23C8F800304FF05B
:104B1000FF30C8E0402363610023099320238DF810
:104B2000293030238DF82A3003954FF0010B37469A
:104B30003D4615F8013B0BB1252B3ED1B7EB060ADC
:104B40000BD05346324621464046FFF771FF0130F5
:104B500000F0A480099B534409933B78002B00F09C
:104B60009D8000234FF0FF32CDE905230493079386
:104B70008DF853301A932F46052217F8011B504821
:104B8000FBF7E6FC049BD0B9D90644BF20228DF880
:104B900053201A0744BF2B228DF853202A782A2A43
:104BA00015D0079A2F4600200A25394611F8013BF7
:104BB000303B092B4DD9B8B10FE02F46B8E7404A3A
:104BC000801A0BFA00F0184304903D46D3E7039A8D
:104BD000111D12680391002A01DB079204E0524282
:104BE00043F00203079204933B782E2B0CD17B7881
:104BF0002A2B33D1039B1A1D1B680392002BB8BFCD
:104C00004FF0FF33023705932E4D397803222846A3
:104C1000FBF79EFC38B14023401B03FA00F0049BD5
:104C2000034301370493397827488DF8281006226A
:104C30007E1CFBF78DFC002838D0244B13BB039B54
:104C4000073323F0070308330393099B4B4409936D
:104C50006DE705FB023201200F46A6E7002301376E
:104C6000059319460A25384610F8012B303A092ACF
:104C700003D9002BC8D00591C6E705FB012101230C
:104C80000746F0E703AB00932246114B04A94046C8
:104C9000AFF30080B0F1FF3F8146D6D1A3895B0618
:104CA0003FF535AF09981DB0BDE8F08F03AB009319
:104CB0002246074B04A9404600F082F8EAE700BF0D
:104CC000185100081E510008225100080000000081
:104CD000314A00082DE9F04791461F468A680B6962
:104CE000DDF820809342B8BF1346C9F8003091F830
:104CF000432006460C4612B10133C9F80030236840
:104D0000990642BFD9F800300233C9F8003025684F
:104D100015F0060507D104F1190AE368D9F8002057
:104D20009B1AAB4228DC94F843302268003318BF4A
:104D3000012392062DD404F1430239463046C04780
:104D4000013020D02368E568D9F8002003F006037D
:104D5000042B08BFAD1AA36822690CBF25EAE575CC
:104D600000259342C4BF9B1AED184FF000091A3476
:104D70004D451AD1002008E00123524639463046FD
:104D8000C047013003D14FF0FF30BDE8F087013557
:104D9000C3E7E1185A1C302081F84300224494F8FC
:104DA000451082F843100233C5E7012322463946F5
:104DB0003046C0470130E6D009F10109D8E70000CC
:104DC0002DE9F04301F1430C0C46097E85B06E29B4
:104DD0001746064698460C9A00F0B38022D86329FD
:104DE00036D00AD8002900F0B980582900F0838015
:104DF00004F1420584F8421032E0642901D06929A7
:104E0000F6D120681368050603F104012AD51B6852
:104E10001160002B03DA2D225B4284F843206F4897
:104E20000A2239E0732900F09D8008D86F2920D02C
:104E30007029DDD1236843F02003236003E0752946
:104E400017D07829D4D1782384F84530644855E0C8
:104E50001368191D1B68116004F1420584F8423083
:104E600001238CE01B68116010F0400F18BF1BB2CB
:104E7000CFE713682568181D1060280601D51B6848
:104E800002E06806FBD51B8854486F2914BF0A222C
:104E90000822002184F843106568A560002DC0F247
:104EA0009580216821F004012160002B3DD1002D67
:104EB00040F08E806546082A0BD12368DB0708D5B1
:104EC000236962689A42DEBF302305F8013C05F190
:104ED000FF35ACEB05032361CDF800803B4603AA08
:104EE00021463046FFF7F6FE01304DD14FF0FF303E
:104EF00005B0BDE8F083394884F84510136821688F
:104F00001D1D1B6815600A060BD5CA0744BF41F07A
:104F1000200121601BB9226822F0200222601022A9
:104F2000B7E74D0648BF9BB2EFE76546B3FBF2F12A
:104F300002FB1133C35C05F8013D0B460029F5D196
:104F4000B9E7136825686169181D106028061B6899
:104F500001D5196002E06A06FBD5198000232361A0
:104F60006546B9E71368191D11601D686268002164
:104F70002846FBF7EDFA08B1401B606063682361C7
:104F8000002384F84330A7E723692A463946304690
:104F9000C0470130AAD023689B0713D4E068039B65
:104FA0009842B8BF1846A3E701234A46394630461F
:104FB000C04701309AD00135E368039A9B1AAB428F
:104FC000F2DCEBE7002504F11909F5E7002BACD181
:104FD000037884F8423004F142056CE72951000857
:104FE0003A510008884210B501EB020307D8421E6F
:104FF00099420AD011F8014B02F8014FF8E78342B9
:10500000F5D98118D21AD34200D110BD13F8014D41
:1050100001F8014DF7E7F8B5074614460E4621B9E9
:105020001146BDE8F840FFF777BC22B9FFF726FC30
:1050300025462846F8BD00F014F8A0420FD22146BC
:105040003846FFF769FC05460028F2D03146224673
:10505000FFF700FC31463846FFF710FCE9E735461C
:10506000E7E751F8043C181F002BBCBF0B58C018D1
:1050700070470000044A05491368002B08BF0B461F
:105080001844106018467047DC00002060100020B3
:10509000F8B500BFF8BC08BC9E467047F8B500BF25
:0850A000F8BC08BC9E467047F5
:1050A80000000000000000000102030406070809D0
:1050B8000000000001020304000610160006101686
:1050C800200000002D2D2D2D2D2D2D2D2D2D507531
:1050D800747479496E746572666163655F496E6957
:1050E800742D2D2D2D2D2D2D2D2D2D2D0A0D00003E
:1050F8004552524F523A20636F6D6D616E64207451
:105108006F6F206C6F6E670A0D000000256300004A
:10511800232D302B2000686C4C0065666745464798
:10512800003031323334353637383941424344451B
:10513800460030313233343536373839616263648A
:045148006566000098
:08514C0024B1FF7F0100000007
:045154002502000828
:045158000102000848
:10515C000024F40001000000100000008809002069
:10516C0008000000880900200C000000A80D002099
:10517C0004000000A80D0020000000008809002099
:10518C0000000000880900200400000040000020FE
:10519C000000000000000000000000000000000003
:1051AC0000000000000000000000000000000000F3
:1051BC0000000000000000000000000000000000E3
:1051CC0000000000000000000000000000000000D3
:1051DC0000000000000000000000000000000000C3
:1051EC0000000000000000000000000000000000B3
:04000005080047B9EF
:00000001FF
